{
  "_format": "hh3-artifact-1",
  "contractName": "TraceabilityMerkleRegistry",
  "sourceName": "contracts/TraceabilityMerkleRegistry.sol",
  "abi": [
    {
      "inputs": [],
      "stateMutability": "nonpayable",
      "type": "constructor"
    },
    {
      "inputs": [],
      "name": "BatchAlreadyClosed",
      "type": "error"
    },
    {
      "inputs": [],
      "name": "BatchCodeAlreadyUsed",
      "type": "error"
    },
    {
      "inputs": [],
      "name": "InvalidBatch",
      "type": "error"
    },
    {
      "inputs": [],
      "name": "InvalidEventType",
      "type": "error"
    },
    {
      "inputs": [],
      "name": "InvalidProduct",
      "type": "error"
    },
    {
      "inputs": [],
      "name": "MerkleRootAlreadySet",
      "type": "error"
    },
    {
      "inputs": [],
      "name": "PausedContract",
      "type": "error"
    },
    {
      "inputs": [],
      "name": "Unauthorized",
      "type": "error"
    },
    {
      "inputs": [],
      "name": "ZeroAddress",
      "type": "error"
    },
    {
      "anonymous": false,
      "inputs": [
        {
          "indexed": true,
          "internalType": "uint256",
          "name": "batchId",
          "type": "uint256"
        },
        {
          "indexed": true,
          "internalType": "bytes32",
          "name": "batchCodeHash",
          "type": "bytes32"
        },
        {
          "indexed": false,
          "internalType": "string",
          "name": "batchCode",
          "type": "string"
        }
      ],
      "name": "BatchCodeBound",
      "type": "event"
    },
    {
      "anonymous": false,
      "inputs": [
        {
          "indexed": true,
          "internalType": "uint256",
          "name": "batchId",
          "type": "uint256"
        },
        {
          "indexed": true,
          "internalType": "uint256",
          "name": "productId",
          "type": "uint256"
        },
        {
          "indexed": true,
          "internalType": "address",
          "name": "creator",
          "type": "address"
        },
        {
          "indexed": false,
          "internalType": "bytes32",
          "name": "initialDataHash",
          "type": "bytes32"
        }
      ],
      "name": "BatchCreated",
      "type": "event"
    },
    {
      "anonymous": false,
      "inputs": [
        {
          "indexed": true,
          "internalType": "uint256",
          "name": "batchId",
          "type": "uint256"
        },
        {
          "indexed": true,
          "internalType": "bytes32",
          "name": "merkleRoot",
          "type": "bytes32"
        },
        {
          "indexed": true,
          "internalType": "address",
          "name": "committer",
          "type": "address"
        }
      ],
      "name": "BatchMerkleRootCommitted",
      "type": "event"
    },
    {
      "anonymous": false,
      "inputs": [
        {
          "indexed": true,
          "internalType": "address",
          "name": "previousOwner",
          "type": "address"
        },
        {
          "indexed": true,
          "internalType": "address",
          "name": "newOwner",
          "type": "address"
        }
      ],
      "name": "OwnershipTransferred",
      "type": "event"
    },
    {
      "anonymous": false,
      "inputs": [
        {
          "indexed": false,
          "internalType": "address",
          "name": "account",
          "type": "address"
        }
      ],
      "name": "Paused",
      "type": "event"
    },
    {
      "anonymous": false,
      "inputs": [
        {
          "indexed": true,
          "internalType": "uint256",
          "name": "productId",
          "type": "uint256"
        },
        {
          "indexed": true,
          "internalType": "address",
          "name": "owner",
          "type": "address"
        },
        {
          "indexed": false,
          "internalType": "string",
          "name": "name",
          "type": "string"
        },
        {
          "indexed": false,
          "internalType": "string",
          "name": "metadataURI",
          "type": "string"
        }
      ],
      "name": "ProductCreated",
      "type": "event"
    },
    {
      "anonymous": false,
      "inputs": [
        {
          "indexed": true,
          "internalType": "address",
          "name": "account",
          "type": "address"
        },
        {
          "indexed": false,
          "internalType": "uint256",
          "name": "roles",
          "type": "uint256"
        }
      ],
      "name": "RolesUpdated",
      "type": "event"
    },
    {
      "anonymous": false,
      "inputs": [
        {
          "indexed": true,
          "internalType": "uint256",
          "name": "eventId",
          "type": "uint256"
        },
        {
          "indexed": true,
          "internalType": "uint256",
          "name": "batchId",
          "type": "uint256"
        },
        {
          "indexed": false,
          "internalType": "enum TraceabilityMerkleRegistry.EventType",
          "name": "eventType",
          "type": "uint8"
        },
        {
          "indexed": true,
          "internalType": "address",
          "name": "actor",
          "type": "address"
        },
        {
          "indexed": false,
          "internalType": "uint64",
          "name": "timestamp",
          "type": "uint64"
        },
        {
          "indexed": false,
          "internalType": "bytes32",
          "name": "dataHash",
          "type": "bytes32"
        }
      ],
      "name": "TraceEventRecorded",
      "type": "event"
    },
    {
      "anonymous": false,
      "inputs": [
        {
          "indexed": false,
          "internalType": "address",
          "name": "account",
          "type": "address"
        }
      ],
      "name": "Unpaused",
      "type": "event"
    },
    {
      "inputs": [],
      "name": "ROLE_AUDITOR",
      "outputs": [
        {
          "internalType": "uint256",
          "name": "",
          "type": "uint256"
        }
      ],
      "stateMutability": "view",
      "type": "function"
    },
    {
      "inputs": [],
      "name": "ROLE_PROCESSOR",
      "outputs": [
        {
          "internalType": "uint256",
          "name": "",
          "type": "uint256"
        }
      ],
      "stateMutability": "view",
      "type": "function"
    },
    {
      "inputs": [],
      "name": "ROLE_PRODUCER",
      "outputs": [
        {
          "internalType": "uint256",
          "name": "",
          "type": "uint256"
        }
      ],
      "stateMutability": "view",
      "type": "function"
    },
    {
      "inputs": [],
      "name": "ROLE_RETAILER",
      "outputs": [
        {
          "internalType": "uint256",
          "name": "",
          "type": "uint256"
        }
      ],
      "stateMutability": "view",
      "type": "function"
    },
    {
      "inputs": [],
      "name": "ROLE_TRANSPORTER",
      "outputs": [
        {
          "internalType": "uint256",
          "name": "",
          "type": "uint256"
        }
      ],
      "stateMutability": "view",
      "type": "function"
    },
    {
      "inputs": [
        {
          "internalType": "bytes32",
          "name": "",
          "type": "bytes32"
        }
      ],
      "name": "batchCodeHashToBatchId",
      "outputs": [
        {
          "internalType": "uint256",
          "name": "",
          "type": "uint256"
        }
      ],
      "stateMutability": "view",
      "type": "function"
    },
    {
      "inputs": [
        {
          "internalType": "uint256",
          "name": "",
          "type": "uint256"
        },
        {
          "internalType": "uint256",
          "name": "",
          "type": "uint256"
        }
      ],
      "name": "batchEvents",
      "outputs": [
        {
          "internalType": "uint256",
          "name": "",
          "type": "uint256"
        }
      ],
      "stateMutability": "view",
      "type": "function"
    },
    {
      "inputs": [
        {
          "internalType": "uint256",
          "name": "",
          "type": "uint256"
        }
      ],
      "name": "batchMerkleRoot",
      "outputs": [
        {
          "internalType": "bytes32",
          "name": "",
          "type": "bytes32"
        }
      ],
      "stateMutability": "view",
      "type": "function"
    },
    {
      "inputs": [
        {
          "internalType": "uint256",
          "name": "",
          "type": "uint256"
        }
      ],
      "name": "batches",
      "outputs": [
        {
          "internalType": "uint256",
          "name": "productId",
          "type": "uint256"
        },
        {
          "internalType": "address",
          "name": "creator",
          "type": "address"
        },
        {
          "internalType": "address",
          "name": "currentOwner",
          "type": "address"
        },
        {
          "internalType": "bytes32",
          "name": "initialDataHash",
          "type": "bytes32"
        },
        {
          "internalType": "bool",
          "name": "exists",
          "type": "bool"
        },
        {
          "internalType": "bool",
          "name": "closed",
          "type": "bool"
        },
        {
          "internalType": "address",
          "name": "pendingReceiver",
          "type": "address"
        }
      ],
      "stateMutability": "view",
      "type": "function"
    },
    {
      "inputs": [
        {
          "internalType": "uint256",
          "name": "batchId",
          "type": "uint256"
        },
        {
          "internalType": "string",
          "name": "batchCode",
          "type": "string"
        }
      ],
      "name": "bindBatchCode",
      "outputs": [],
      "stateMutability": "nonpayable",
      "type": "function"
    },
    {
      "inputs": [
        {
          "internalType": "uint256",
          "name": "batchId",
          "type": "uint256"
        },
        {
          "internalType": "bytes32",
          "name": "merkleRoot",
          "type": "bytes32"
        }
      ],
      "name": "commitBatchMerkleRoot",
      "outputs": [],
      "stateMutability": "nonpayable",
      "type": "function"
    },
    {
      "inputs": [
        {
          "internalType": "uint256",
          "name": "productId",
          "type": "uint256"
        },
        {
          "internalType": "bytes32",
          "name": "initialDataHash",
          "type": "bytes32"
        }
      ],
      "name": "createBatch",
      "outputs": [
        {
          "internalType": "uint256",
          "name": "batchId",
          "type": "uint256"
        }
      ],
      "stateMutability": "nonpayable",
      "type": "function"
    },
    {
      "inputs": [
        {
          "internalType": "string",
          "name": "name",
          "type": "string"
        },
        {
          "internalType": "string",
          "name": "metadataURI",
          "type": "string"
        }
      ],
      "name": "createProduct",
      "outputs": [
        {
          "internalType": "uint256",
          "name": "productId",
          "type": "uint256"
        }
      ],
      "stateMutability": "nonpayable",
      "type": "function"
    },
    {
      "inputs": [
        {
          "internalType": "uint256",
          "name": "",
          "type": "uint256"
        }
      ],
      "name": "eventsById",
      "outputs": [
        {
          "internalType": "uint256",
          "name": "batchId",
          "type": "uint256"
        },
        {
          "internalType": "enum TraceabilityMerkleRegistry.EventType",
          "name": "eventType",
          "type": "uint8"
        },
        {
          "internalType": "address",
          "name": "actor",
          "type": "address"
        },
        {
          "internalType": "uint64",
          "name": "timestamp",
          "type": "uint64"
        },
        {
          "internalType": "bytes32",
          "name": "dataHash",
          "type": "bytes32"
        }
      ],
      "stateMutability": "view",
      "type": "function"
    },
    {
      "inputs": [
        {
          "internalType": "uint256",
          "name": "batchId",
          "type": "uint256"
        }
      ],
      "name": "getBatch",
      "outputs": [
        {
          "internalType": "uint256",
          "name": "productId",
          "type": "uint256"
        },
        {
          "internalType": "address",
          "name": "creator",
          "type": "address"
        },
        {
          "internalType": "address",
          "name": "currentOwner",
          "type": "address"
        },
        {
          "internalType": "bytes32",
          "name": "initialDataHash",
          "type": "bytes32"
        },
        {
          "internalType": "bool",
          "name": "exists",
          "type": "bool"
        },
        {
          "internalType": "bool",
          "name": "closed",
          "type": "bool"
        },
        {
          "internalType": "address",
          "name": "pendingReceiver",
          "type": "address"
        }
      ],
      "stateMutability": "view",
      "type": "function"
    },
    {
      "inputs": [
        {
          "internalType": "uint256",
          "name": "batchId",
          "type": "uint256"
        }
      ],
      "name": "getBatchEvents",
      "outputs": [
        {
          "internalType": "uint256[]",
          "name": "",
          "type": "uint256[]"
        }
      ],
      "stateMutability": "view",
      "type": "function"
    },
    {
      "inputs": [
        {
          "internalType": "address",
          "name": "account",
          "type": "address"
        },
        {
          "internalType": "uint256",
          "name": "role",
          "type": "uint256"
        }
      ],
      "name": "hasRole",
      "outputs": [
        {
          "internalType": "bool",
          "name": "",
          "type": "bool"
        }
      ],
      "stateMutability": "view",
      "type": "function"
    },
    {
      "inputs": [],
      "name": "nextBatchId",
      "outputs": [
        {
          "internalType": "uint256",
          "name": "",
          "type": "uint256"
        }
      ],
      "stateMutability": "view",
      "type": "function"
    },
    {
      "inputs": [],
      "name": "nextEventId",
      "outputs": [
        {
          "internalType": "uint256",
          "name": "",
          "type": "uint256"
        }
      ],
      "stateMutability": "view",
      "type": "function"
    },
    {
      "inputs": [],
      "name": "nextProductId",
      "outputs": [
        {
          "internalType": "uint256",
          "name": "",
          "type": "uint256"
        }
      ],
      "stateMutability": "view",
      "type": "function"
    },
    {
      "inputs": [],
      "name": "owner",
      "outputs": [
        {
          "internalType": "address",
          "name": "",
          "type": "address"
        }
      ],
      "stateMutability": "view",
      "type": "function"
    },
    {
      "inputs": [],
      "name": "pause",
      "outputs": [],
      "stateMutability": "nonpayable",
      "type": "function"
    },
    {
      "inputs": [],
      "name": "paused",
      "outputs": [
        {
          "internalType": "bool",
          "name": "",
          "type": "bool"
        }
      ],
      "stateMutability": "view",
      "type": "function"
    },
    {
      "inputs": [
        {
          "internalType": "uint256",
          "name": "",
          "type": "uint256"
        }
      ],
      "name": "products",
      "outputs": [
        {
          "internalType": "string",
          "name": "name",
          "type": "string"
        },
        {
          "internalType": "string",
          "name": "metadataURI",
          "type": "string"
        },
        {
          "internalType": "address",
          "name": "owner",
          "type": "address"
        },
        {
          "internalType": "bool",
          "name": "exists",
          "type": "bool"
        }
      ],
      "stateMutability": "view",
      "type": "function"
    },
    {
      "inputs": [
        {
          "internalType": "uint256",
          "name": "batchId",
          "type": "uint256"
        },
        {
          "internalType": "enum TraceabilityMerkleRegistry.EventType",
          "name": "eventType",
          "type": "uint8"
        },
        {
          "internalType": "bytes32",
          "name": "dataHash",
          "type": "bytes32"
        },
        {
          "internalType": "address",
          "name": "receiver",
          "type": "address"
        }
      ],
      "name": "recordTraceEvent",
      "outputs": [],
      "stateMutability": "nonpayable",
      "type": "function"
    },
    {
      "inputs": [
        {
          "internalType": "address",
          "name": "",
          "type": "address"
        }
      ],
      "name": "roles",
      "outputs": [
        {
          "internalType": "uint256",
          "name": "",
          "type": "uint256"
        }
      ],
      "stateMutability": "view",
      "type": "function"
    },
    {
      "inputs": [
        {
          "internalType": "address",
          "name": "account",
          "type": "address"
        },
        {
          "internalType": "uint256",
          "name": "newRoles",
          "type": "uint256"
        }
      ],
      "name": "setRoles",
      "outputs": [],
      "stateMutability": "nonpayable",
      "type": "function"
    },
    {
      "inputs": [
        {
          "internalType": "uint256",
          "name": "batchId",
          "type": "uint256"
        },
        {
          "internalType": "address",
          "name": "to",
          "type": "address"
        },
        {
          "internalType": "uint8",
          "name": "eventType",
          "type": "uint8"
        },
        {
          "internalType": "string",
          "name": "description",
          "type": "string"
        }
      ],
      "name": "transferBatch",
      "outputs": [],
      "stateMutability": "nonpayable",
      "type": "function"
    },
    {
      "inputs": [
        {
          "internalType": "address",
          "name": "newOwner",
          "type": "address"
        }
      ],
      "name": "transferOwnership",
      "outputs": [],
      "stateMutability": "nonpayable",
      "type": "function"
    },
    {
      "inputs": [],
      "name": "unpause",
      "outputs": [],
      "stateMutability": "nonpayable",
      "type": "function"
    },
    {
      "inputs": [
        {
          "internalType": "bytes32",
          "name": "leaf",
          "type": "bytes32"
        },
        {
          "internalType": "bytes32",
          "name": "root",
          "type": "bytes32"
        },
        {
          "internalType": "bytes32[]",
          "name": "proof",
          "type": "bytes32[]"
        }
      ],
      "name": "verifyWithRoot",
      "outputs": [
        {
          "internalType": "bool",
          "name": "",
          "type": "bool"
        }
      ],
      "stateMutability": "pure",
      "type": "function"
    }
  ],
  "bytecode": "0x6080604052600160035560016004556001600555348015601d575f5ffd5b505f80546001600160a01b0319163390811782556040519091907f8be0079c531659141344cd1fd0a4f28419497f9722a3daafe3b4186f6b6457e0908290a36120dd806100695f395ff3fe608060405234801561000f575f5ffd5b5060043610610191575f3560e01c80638462a7f8116100eb578063b32c4d8d1161008f578063b32c4d8d14610453578063b43857e8146104b2578063bc7b8b24146104ba578063c4d6b7d5146104c2578063de75348c146104d5578063e58922fa146104e8578063ecd40660146104fb578063f2fde38b1461051b575f5ffd5b80638462a7f8146103c257806387592bce146103cb5780638ace69cf146103de5780638da5cb5b146103f157806399374642146104105780639a7a02381461042f5780639f9d903a14610442578063a13fbeed1461044b575f5ffd5b80631338811a1461019557806321a6f8aa146101aa57806333a3ad8f146101c5578063391224c2146101d85780633f029aaf146101f75780633f4ba83a146101ff578063483fc3bb146102075780634cd685781461022a5780634de91a63146102495780635ac44282146102525780635c975abb146102f95780635c97f4a2146103065780636d7524ee146103345780637acc0b20146103975780638456cb59146103ba575b5f5ffd5b6101a86101a3366004611a2b565b61052e565b005b6101b2600281565b6040519081526020015b60405180910390f35b6101a86101d3366004611a73565b610770565b6101b26101e6366004611a9b565b600b6020525f908152604090205481565b6101b2601081565b6101a8610818565b61021a610215366004611ab2565b610885565b60405190151581526020016101bc565b6101b2610238366004611a9b565b600a6020525f908152604090205481565b6101b260035481565b6102b4610260366004611a9b565b5f908152600760205260409020805460018201546002830154600384015460049094015492946001600160a01b039283169491831693919260ff808416936101008104909116926201000090910490911690565b604080519788526001600160a01b03968716602089015294861694870194909452606086019290925215156080850152151560a08401521660c082015260e0016101bc565b60025461021a9060ff1681565b61021a610314366004611a73565b6001600160a01b03919091165f9081526001602052604090205416151590565b610386610342366004611a9b565b60086020525f9081526040902080546001820154600290920154909160ff81169161010082046001600160a01b031691600160a81b90046001600160401b03169085565b6040516101bc959493929190611b63565b6103aa6103a5366004611a9b565b61089c565b6040516101bc9493929190611bd3565b6101a86109df565b6101b260045481565b6101b26103d9366004611c5d565b610a45565b6101a86103ec366004611cc7565b610c02565b5f54610403906001600160a01b031681565b6040516101bc9190611ce7565b6101b261041e366004611cfb565b60016020525f908152604090205481565b6101a861043d366004611d1b565b610d2e565b6101b260055481565b6101b2600181565b6102b4610461366004611a9b565b60076020525f90815260409020805460018201546002830154600384015460049094015492936001600160a01b039283169391831692909160ff808216926101008304909116916201000090041687565b6101b2600881565b6101b2600481565b6101b26104d0366004611cc7565b610ebc565b6101b26104e3366004611cc7565b6111eb565b6101a86104f6366004611d76565b611216565b61050e610509366004611a9b565b6113e4565b6040516101bc9190611e57565b6101a8610529366004611cfb565b611443565b60025460ff161561055257604051637991559360e11b815260040160405180910390fd5b5f84815260076020526040902060040154849060ff16610585576040516333b094a160e01b815260040160405180910390fd5b5f8581526007602052604090206004810154610100900460ff16156105bd576040516335ee5c4560e11b815260040160405180910390fd5b6105c785336114ec565b6105d3868633866116ee565b60028560078111156105e7576105e7611b2f565b0361065e576001600160a01b0383166106395760405162461bcd60e51b815260206004820152601060248201526f24b73b30b634b2103932b1b2b4bb32b960811b604482015260640160405180910390fd5b60048101805462010000600160b01b031916620100006001600160a01b038616021790555b600385600781111561067257610672611b2f565b036106d25760048101546201000090046001600160a01b031633146106a9576040516282b42960e81b815260040160405180910390fd5b6002810180546001600160a01b0319163317905560048101805462010000600160b01b03191690555b60048560078111156106e6576106e6611b2f565b03610700576002810180546001600160a01b031916331790555b600585600781111561071457610714611b2f565b14806107315750600685600781111561072f5761072f611b2f565b145b1561075c576002810180546001600160a01b0319163317905560048101805461ff0019166101001790555b610768868633876117c7565b505050505050565b5f546001600160a01b03163314610799576040516282b42960e81b815260040160405180910390fd5b6001600160a01b0382166107c05760405163d92e233d60e01b815260040160405180910390fd5b6001600160a01b0382165f8181526001602052604090819020839055517f715ad5ce61fc9595c7b415289d59cf203f23a94fa06f04af7e489a0a76e1fe269061080c9084815260200190565b60405180910390a25050565b5f546001600160a01b03163314610841576040516282b42960e81b815260040160405180910390fd5b6002805460ff191690556040517f5db9ee0a495bf2e6ff9c91a7834c1ba4fdd244a5e8aa4e537bd38aeae4b073aa9061087b903390611ce7565b60405180910390a1565b5f8361089286858561196d565b1495945050505050565b60066020525f90815260409020805481906108b690611e8e565b80601f01602080910402602001604051908101604052809291908181526020018280546108e290611e8e565b801561092d5780601f106109045761010080835404028352916020019161092d565b820191905f5260205f20905b81548152906001019060200180831161091057829003601f168201915b50505050509080600101805461094290611e8e565b80601f016020809104026020016040519081016040528092919081815260200182805461096e90611e8e565b80156109b95780601f10610990576101008083540402835291602001916109b9565b820191905f5260205f20905b81548152906001019060200180831161099c57829003601f168201915b505050600290930154919250506001600160a01b0381169060ff600160a01b9091041684565b5f546001600160a01b03163314610a08576040516282b42960e81b815260040160405180910390fd5b6002805460ff191660011790556040517f62e78cea01bee320cd4e420270b5ea74000d11b0c9f74754ebdbfc544b05a2589061087b903390611ce7565b6002545f9060ff1615610a6b57604051637991559360e11b815260040160405180910390fd5b335f908152600160208190526040909120548116158015610a9657505f546001600160a01b03163314155b15610ab3576040516282b42960e81b815260040160405180910390fd5b60038054905f610ac283611ec6565b909155506040805160a06020601f8a0181900402820181019092526080810188815292945091829189908990819085018382808284375f92019190915250505090825250604080516020601f8801819004810282018101909252868152918101919087908790819084018382808284375f920182905250938552505033602080850191909152600160409485015286835260069052502081518190610b679082611f2e565b5060208201516001820190610b7c9082611f2e565b50604082810151600290920180546060909401511515600160a01b026001600160a81b03199094166001600160a01b039093169290921792909217905551339083907f5b6548625353cfbb6de6bbb313a0b1cf8efbb45f2874f24c9d352590e3e366ff90610bf1908a908a908a908a90612010565b60405180910390a350949350505050565b60025460ff1615610c2657604051637991559360e11b815260040160405180910390fd5b5f82815260076020526040902060040154829060ff16610c59576040516333b094a160e01b815260040160405180910390fd5b81610c7757604051631746482760e11b815260040160405180910390fd5b5f838152600b602052604090205415610ca357604051631801b65960e21b815260040160405180910390fd5b335f81815260016020526040812054905490916001600160a01b0390911614801590610cd0575060108116155b15610ced576040516282b42960e81b815260040160405180910390fd5b5f848152600b6020526040808220859055513391859187917f6cc668dfcfb73b1f297b65a8bd52a62f4c634e392247b9d7c35b1e4b590e577f91a450505050565b60025460ff1615610d5257604051637991559360e11b815260040160405180910390fd5b5f83815260076020526040902060040154839060ff16610d85576040516333b094a160e01b815260040160405180910390fd5b5f84815260076020526040902060028101546001600160a01b03163314801590610dbc575060018101546001600160a01b03163314155b8015610dd257505f546001600160a01b03163314155b15610def576040516282b42960e81b815260040160405180910390fd5b6004810154610100900460ff1615610e1a576040516335ee5c4560e11b815260040160405180910390fd5b5f8484604051610e2b929190612041565b60405180910390209050600a5f8281526020019081526020015f20545f14610e665760405163e092299d60e01b815260040160405180910390fd5b5f818152600a60205260409081902087905551819087907f506c82a4b9513c193f67b1622dbdf0b23390c1ad17a36d51e1db7b4410c7429590610eac9089908990612050565b60405180910390a3505050505050565b6002545f9060ff1615610ee257604051637991559360e11b815260040160405180910390fd5b335f908152600160208190526040909120548116158015610f0d57505f546001600160a01b03163314155b15610f2a576040516282b42960e81b815260040160405180910390fd5b5f84815260066020526040808220815160808101909252805482908290610f5090611e8e565b80601f0160208091040260200160405190810160405280929190818152602001828054610f7c90611e8e565b8015610fc75780601f10610f9e57610100808354040283529160200191610fc7565b820191905f5260205f20905b815481529060010190602001808311610faa57829003601f168201915b50505050508152602001600182018054610fe090611e8e565b80601f016020809104026020016040519081016040528092919081815260200182805461100c90611e8e565b80156110575780601f1061102e57610100808354040283529160200191611057565b820191905f5260205f20905b81548152906001019060200180831161103a57829003601f168201915b5050509183525050600291909101546001600160a01b0381166020830152600160a01b900460ff16151560409091015260608101519091506110ac5760405163a661c0e760e01b815260040160405180910390fd5b60048054905f6110bb83611ec6565b909155506040805160e081018252878152336020808301828152838501838152606085018b81526001608087018181525f60a0890181815260c08a018281528c8352600790985299812098518955945191880180546001600160a01b03199081166001600160a01b0394851617909155935160028901805490951690831617909355905160038701559051600490950180549651935161ffff1990971695151561ff00191695909517610100931515939093029290921762010000600160b01b0319166201000095909216949094021790915591945061119e91859190876117c7565b336001600160a01b031685847fb8e4c77c5f3171f096fd7e3977a2eebf1c3eefe6547f83f12fe70bf3361daa7d876040516111db91815260200190565b60405180910390a4505092915050565b6009602052815f5260405f208181548110611204575f80fd5b905f5260205f20015f91509150505481565b5f8481526007602052604081206002810180546001600160a01b0319166001600160a01b03871617905560058054919291908261125283611ec6565b9190505590506040518060a001604052808781526020018560ff16600781111561127e5761127e611b2f565b600781111561128f5761128f611b2f565b8152602001336001600160a01b03168152602001426001600160401b03168152602001848051906020012081525060085f8381526020019081526020015f205f820151815f01556020820151816001015f6101000a81548160ff021916908360078111156112ff576112ff611b2f565b02179055506040828101516001808401805460608701516001600160401b0316600160a81b0267ffffffffffffffff60a81b196001600160a01b039095166101000294909416610100600160e81b031990911617929092179091556080909301516002909201919091555f8881526009602090815291812080549384018155815220018190553386827f0dcf9cf0b0ef90d5acde712ce20c5e9389f622a1bc4c8f8d34cbecbdb3172f0860ff881660078111156113be576113be611b2f565b875160208901206040516113d49291429161206b565b60405180910390a4505050505050565b5f8181526009602090815260409182902080548351818402810184019094528084526060939283018282801561143757602002820191905f5260205f20905b815481526020019060010190808311611423575b50505050509050919050565b5f546001600160a01b0316331461146c576040516282b42960e81b815260040160405180910390fd5b6001600160a01b0381166114935760405163d92e233d60e01b815260040160405180910390fd5b5f80546040516001600160a01b03808516939216917f8be0079c531659141344cd1fd0a4f28419497f9722a3daafe3b4186f6b6457e091a35f80546001600160a01b0319166001600160a01b0392909216919091179055565b6001600160a01b038082165f818152600160205260408120549054909216900361151557505050565b5f83600781111561152857611528611b2f565b0361155457600181165f0361154f576040516282b42960e81b815260040160405180910390fd5b505050565b600183600781111561156857611568611b2f565b0361158f57600381165f0361154f576040516282b42960e81b815260040160405180910390fd5b60028360078111156115a3576115a3611b2f565b036115ca57600781165f0361154f576040516282b42960e81b815260040160405180910390fd5b60038360078111156115de576115de611b2f565b0361160557600e81165f0361154f576040516282b42960e81b815260040160405180910390fd5b600483600781111561161957611619611b2f565b0361164057600a81165f0361154f576040516282b42960e81b815260040160405180910390fd5b600583600781111561165457611654611b2f565b0361167b57600881165f0361154f576040516282b42960e81b815260040160405180910390fd5b600683600781111561168f5761168f611b2f565b036116b657601981165f0361154f576040516282b42960e81b815260040160405180910390fd5b60078360078111156116ca576116ca611b2f565b0361154f57805f0361154f576040516282b42960e81b815260040160405180910390fd5b5f848152600760205260409020600284600781111561170f5761170f611b2f565b03611741576001600160a01b03821661173b5760405163d92e233d60e01b815260040160405180910390fd5b506117c1565b600384600781111561175557611755611b2f565b036117bf5760048101546201000090046001600160a01b031661178a576040516282b42960e81b815260040160405180910390fd5b60048101546001600160a01b0384811662010000909204161461173b576040516282b42960e81b815260040160405180910390fd5b505b50505050565b600783818111156117da576117da611b2f565b60ff1611156117fc57604051631746482760e11b815260040160405180910390fd5b600580545f918261180c83611ec6565b9190505590506040518060a0016040528086815260200185600781111561183557611835611b2f565b8152602001846001600160a01b03168152602001426001600160401b031681526020018381525060085f8381526020019081526020015f205f820151815f01556020820151816001015f6101000a81548160ff0219169083600781111561189e5761189e611b2f565b02179055506040828101516001808401805460608701516001600160401b0316600160a81b0267ffffffffffffffff60a81b196001600160a01b039586166101000216610100600160e81b0319909216919091171790556080909401516002909301929092555f888152600960209081528282208054958601815582529020909201839055905190841690869083907f0dcf9cf0b0ef90d5acde712ce20c5e9389f622a1bc4c8f8d34cbecbdb3172f089061195e9089904290899061206b565b60405180910390a45050505050565b5f8382825b81811015611a05575f86868381811061198d5761198d612093565b905060200201359050808410156119cf5760408051602081018690529081018290526060016040516020818303038152906040528051906020012093506119fc565b60408051602081018390529081018590526060016040516020818303038152906040528051906020012093505b50600101611972565b509095945050505050565b80356001600160a01b0381168114611a26575f5ffd5b919050565b5f5f5f5f60808587031215611a3e575f5ffd5b84359350602085013560088110611a53575f5ffd5b925060408501359150611a6860608601611a10565b905092959194509250565b5f5f60408385031215611a84575f5ffd5b611a8d83611a10565b946020939093013593505050565b5f60208284031215611aab575f5ffd5b5035919050565b5f5f5f5f60608587031215611ac5575f5ffd5b843593506020850135925060408501356001600160401b03811115611ae8575f5ffd5b8501601f81018713611af8575f5ffd5b80356001600160401b03811115611b0d575f5ffd5b8760208260051b8401011115611b21575f5ffd5b949793965060200194505050565b634e487b7160e01b5f52602160045260245ffd5b60088110611b5f57634e487b7160e01b5f52602160045260245ffd5b9052565b85815260a08101611b776020830187611b43565b6001600160a01b039490941660408201526001600160401b0392909216606083015260809091015292915050565b5f81518084528060208401602086015e5f602082860101526020601f19601f83011685010191505092915050565b608081525f611be56080830187611ba5565b8281036020840152611bf78187611ba5565b6001600160a01b03959095166040840152505090151560609091015292915050565b5f5f83601f840112611c29575f5ffd5b5081356001600160401b03811115611c3f575f5ffd5b602083019150836020828501011115611c56575f5ffd5b9250929050565b5f5f5f5f60408587031215611c70575f5ffd5b84356001600160401b03811115611c85575f5ffd5b611c9187828801611c19565b90955093505060208501356001600160401b03811115611caf575f5ffd5b611cbb87828801611c19565b95989497509550505050565b5f5f60408385031215611cd8575f5ffd5b50508035926020909101359150565b6001600160a01b0391909116815260200190565b5f60208284031215611d0b575f5ffd5b611d1482611a10565b9392505050565b5f5f5f60408486031215611d2d575f5ffd5b8335925060208401356001600160401b03811115611d49575f5ffd5b611d5586828701611c19565b9497909650939450505050565b634e487b7160e01b5f52604160045260245ffd5b5f5f5f5f60808587031215611d89575f5ffd5b84359350611d9960208601611a10565b9250604085013560ff81168114611dae575f5ffd5b915060608501356001600160401b03811115611dc8575f5ffd5b8501601f81018713611dd8575f5ffd5b80356001600160401b03811115611df157611df1611d62565b604051601f8201601f19908116603f011681016001600160401b0381118282101715611e1f57611e1f611d62565b604052818152828201602001891015611e36575f5ffd5b816020840160208301375f6020838301015280935050505092959194509250565b602080825282518282018190525f918401906040840190835b81811015611a05578351835260209384019390920191600101611e70565b600181811c90821680611ea257607f821691505b602082108103611ec057634e487b7160e01b5f52602260045260245ffd5b50919050565b5f60018201611ee357634e487b7160e01b5f52601160045260245ffd5b5060010190565b601f82111561154f57805f5260205f20601f840160051c81016020851015611f0f5750805b601f840160051c820191505b818110156117bf575f8155600101611f1b565b81516001600160401b03811115611f4757611f47611d62565b611f5b81611f558454611e8e565b84611eea565b6020601f821160018114611f8d575f8315611f765750848201515b5f19600385901b1c1916600184901b1784556117bf565b5f84815260208120601f198516915b82811015611fbc5787850151825560209485019460019092019101611f9c565b5084821015611fd957868401515f19600387901b60f8161c191681555b50505050600190811b01905550565b81835281816020850137505f828201602090810191909152601f909101601f19169091010190565b604081525f612023604083018688611fe8565b8281036020840152612036818587611fe8565b979650505050505050565b818382375f9101908152919050565b602081525f612063602083018486611fe8565b949350505050565b606081016120798286611b43565b6001600160401b0393909316602082015260400152919050565b634e487b7160e01b5f52603260045260245ffdfea26469706673582212203b8e16bbdbec4655ffdedc8c469ad94e65b41cfa139af2a0555d9667e71ef67464736f6c634300081c0033",
  "linkReferences": {},
  "deployedLinkReferences": {},
  "immutableReferences": {},
  "inputSourceName": "project/contracts/TraceabilityMerkleRegistry.sol",
  "buildInfoId": "solc-0_8_28-0894f1818e5f781bd25e5be3f400eec44353f1d2"
}