{
  "_format": "hh3-artifact-1",
  "contractName": "TraceabilityMerkleRegistry",
  "sourceName": "contracts/TraceabilityMerkleRegistry.sol",
  "abi": [
    {
      "inputs": [
        {
          "internalType": "address",
          "name": "initialCommitter",
          "type": "address"
        }
      ],
      "stateMutability": "nonpayable",
      "type": "constructor"
    },
    {
      "inputs": [],
      "name": "BatchNotFound",
      "type": "error"
    },
    {
      "inputs": [],
      "name": "InvalidRange",
      "type": "error"
    },
    {
      "inputs": [],
      "name": "InvalidRoot",
      "type": "error"
    },
    {
      "inputs": [],
      "name": "RootAlreadyCommitted",
      "type": "error"
    },
    {
      "inputs": [],
      "name": "Unauthorized",
      "type": "error"
    },
    {
      "inputs": [],
      "name": "ZeroAddress",
      "type": "error"
    },
    {
      "anonymous": false,
      "inputs": [
        {
          "indexed": true,
          "internalType": "bytes32",
          "name": "batchCodeHash",
          "type": "bytes32"
        },
        {
          "indexed": true,
          "internalType": "uint256",
          "name": "batchId",
          "type": "uint256"
        },
        {
          "indexed": false,
          "internalType": "string",
          "name": "batchCode",
          "type": "string"
        }
      ],
      "name": "BatchCodeBound",
      "type": "event"
    },
    {
      "anonymous": false,
      "inputs": [
        {
          "indexed": true,
          "internalType": "address",
          "name": "oldCommitter",
          "type": "address"
        },
        {
          "indexed": true,
          "internalType": "address",
          "name": "newCommitter",
          "type": "address"
        }
      ],
      "name": "CommitterChanged",
      "type": "event"
    },
    {
      "anonymous": false,
      "inputs": [
        {
          "indexed": true,
          "internalType": "address",
          "name": "previousOwner",
          "type": "address"
        },
        {
          "indexed": true,
          "internalType": "address",
          "name": "newOwner",
          "type": "address"
        }
      ],
      "name": "OwnershipTransferred",
      "type": "event"
    },
    {
      "anonymous": false,
      "inputs": [
        {
          "indexed": false,
          "internalType": "address",
          "name": "account",
          "type": "address"
        }
      ],
      "name": "Paused",
      "type": "event"
    },
    {
      "anonymous": false,
      "inputs": [
        {
          "indexed": true,
          "internalType": "uint256",
          "name": "batchId",
          "type": "uint256"
        },
        {
          "indexed": true,
          "internalType": "bytes32",
          "name": "merkleRoot",
          "type": "bytes32"
        },
        {
          "indexed": false,
          "internalType": "uint256",
          "name": "fromEventId",
          "type": "uint256"
        },
        {
          "indexed": false,
          "internalType": "uint256",
          "name": "toEventId",
          "type": "uint256"
        },
        {
          "indexed": false,
          "internalType": "uint64",
          "name": "timestamp",
          "type": "uint64"
        },
        {
          "indexed": true,
          "internalType": "address",
          "name": "commiter",
          "type": "address"
        }
      ],
      "name": "RootCommitted",
      "type": "event"
    },
    {
      "anonymous": false,
      "inputs": [
        {
          "indexed": false,
          "internalType": "address",
          "name": "account",
          "type": "address"
        }
      ],
      "name": "Unpaused",
      "type": "event"
    },
    {
      "inputs": [
        {
          "internalType": "uint256",
          "name": "",
          "type": "uint256"
        }
      ],
      "name": "batches",
      "outputs": [
        {
          "internalType": "bytes32",
          "name": "root",
          "type": "bytes32"
        },
        {
          "internalType": "uint256",
          "name": "fromEventId",
          "type": "uint256"
        },
        {
          "internalType": "uint256",
          "name": "toEventId",
          "type": "uint256"
        },
        {
          "internalType": "uint64",
          "name": "timestamp",
          "type": "uint64"
        },
        {
          "internalType": "address",
          "name": "committer",
          "type": "address"
        },
        {
          "internalType": "bool",
          "name": "exists",
          "type": "bool"
        }
      ],
      "stateMutability": "view",
      "type": "function"
    },
    {
      "inputs": [
        {
          "internalType": "uint256",
          "name": "batchId",
          "type": "uint256"
        },
        {
          "internalType": "string",
          "name": "batchCode",
          "type": "string"
        }
      ],
      "name": "bindBatchCode",
      "outputs": [],
      "stateMutability": "nonpayable",
      "type": "function"
    },
    {
      "inputs": [
        {
          "internalType": "bytes32",
          "name": "merkleRoot",
          "type": "bytes32"
        },
        {
          "internalType": "uint256",
          "name": "fromEventId",
          "type": "uint256"
        },
        {
          "internalType": "uint256",
          "name": "toEventId",
          "type": "uint256"
        }
      ],
      "name": "commitMerkleRoot",
      "outputs": [
        {
          "internalType": "uint256",
          "name": "batchId",
          "type": "uint256"
        }
      ],
      "stateMutability": "nonpayable",
      "type": "function"
    },
    {
      "inputs": [
        {
          "internalType": "bytes32",
          "name": "merkleRoot",
          "type": "bytes32"
        },
        {
          "internalType": "uint256",
          "name": "fromEventId",
          "type": "uint256"
        },
        {
          "internalType": "uint256",
          "name": "toEventId",
          "type": "uint256"
        },
        {
          "internalType": "string",
          "name": "batchCode",
          "type": "string"
        }
      ],
      "name": "commitWithBatchCode",
      "outputs": [
        {
          "internalType": "uint256",
          "name": "batchId",
          "type": "uint256"
        }
      ],
      "stateMutability": "nonpayable",
      "type": "function"
    },
    {
      "inputs": [],
      "name": "committer",
      "outputs": [
        {
          "internalType": "address",
          "name": "",
          "type": "address"
        }
      ],
      "stateMutability": "view",
      "type": "function"
    },
    {
      "inputs": [
        {
          "internalType": "uint256",
          "name": "batchId",
          "type": "uint256"
        }
      ],
      "name": "getBatch",
      "outputs": [
        {
          "components": [
            {
              "internalType": "bytes32",
              "name": "root",
              "type": "bytes32"
            },
            {
              "internalType": "uint256",
              "name": "fromEventId",
              "type": "uint256"
            },
            {
              "internalType": "uint256",
              "name": "toEventId",
              "type": "uint256"
            },
            {
              "internalType": "uint64",
              "name": "timestamp",
              "type": "uint64"
            },
            {
              "internalType": "address",
              "name": "committer",
              "type": "address"
            },
            {
              "internalType": "bool",
              "name": "exists",
              "type": "bool"
            }
          ],
          "internalType": "struct TraceabilityMerkleRegistry.MerkleBatch",
          "name": "",
          "type": "tuple"
        }
      ],
      "stateMutability": "view",
      "type": "function"
    },
    {
      "inputs": [
        {
          "internalType": "string",
          "name": "batchCode",
          "type": "string"
        }
      ],
      "name": "getBatchIdsByBatchCode",
      "outputs": [
        {
          "internalType": "uint256[]",
          "name": "",
          "type": "uint256[]"
        }
      ],
      "stateMutability": "view",
      "type": "function"
    },
    {
      "inputs": [
        {
          "internalType": "bytes32",
          "name": "leaf",
          "type": "bytes32"
        },
        {
          "internalType": "uint256",
          "name": "batchId",
          "type": "uint256"
        },
        {
          "internalType": "bytes32[]",
          "name": "proof",
          "type": "bytes32[]"
        }
      ],
      "name": "isEventIncluded",
      "outputs": [
        {
          "internalType": "bool",
          "name": "",
          "type": "bool"
        }
      ],
      "stateMutability": "view",
      "type": "function"
    },
    {
      "inputs": [],
      "name": "owner",
      "outputs": [
        {
          "internalType": "address",
          "name": "",
          "type": "address"
        }
      ],
      "stateMutability": "view",
      "type": "function"
    },
    {
      "inputs": [],
      "name": "pause",
      "outputs": [],
      "stateMutability": "nonpayable",
      "type": "function"
    },
    {
      "inputs": [],
      "name": "paused",
      "outputs": [
        {
          "internalType": "bool",
          "name": "",
          "type": "bool"
        }
      ],
      "stateMutability": "view",
      "type": "function"
    },
    {
      "inputs": [
        {
          "internalType": "bytes32",
          "name": "",
          "type": "bytes32"
        }
      ],
      "name": "rootSeen",
      "outputs": [
        {
          "internalType": "bool",
          "name": "",
          "type": "bool"
        }
      ],
      "stateMutability": "view",
      "type": "function"
    },
    {
      "inputs": [
        {
          "internalType": "address",
          "name": "newCommitter",
          "type": "address"
        }
      ],
      "name": "setCommitter",
      "outputs": [],
      "stateMutability": "nonpayable",
      "type": "function"
    },
    {
      "inputs": [],
      "name": "totalBatches",
      "outputs": [
        {
          "internalType": "uint256",
          "name": "",
          "type": "uint256"
        }
      ],
      "stateMutability": "view",
      "type": "function"
    },
    {
      "inputs": [
        {
          "internalType": "address",
          "name": "newOwner",
          "type": "address"
        }
      ],
      "name": "transferOwnership",
      "outputs": [],
      "stateMutability": "nonpayable",
      "type": "function"
    },
    {
      "inputs": [],
      "name": "unpause",
      "outputs": [],
      "stateMutability": "nonpayable",
      "type": "function"
    },
    {
      "inputs": [
        {
          "internalType": "bytes32",
          "name": "leaf",
          "type": "bytes32"
        },
        {
          "internalType": "bytes32",
          "name": "root",
          "type": "bytes32"
        },
        {
          "internalType": "bytes32[]",
          "name": "proof",
          "type": "bytes32[]"
        }
      ],
      "name": "verifyWithRoot",
      "outputs": [
        {
          "internalType": "bool",
          "name": "",
          "type": "bool"
        }
      ],
      "stateMutability": "pure",
      "type": "function"
    }
  ],
  "bytecode": "0x608060405234801561000f575f5ffd5b50604051610fc9380380610fc983398101604081905261002e916100e8565b5f80546001600160a01b031916331781556001600160a01b038216156100545781610056565b335b600180546001600160a01b0319166001600160a01b03838116919091179091555f8054604051939450909116917f8be0079c531659141344cd1fd0a4f28419497f9722a3daafe3b4186f6b6457e0908290a36001546040516001600160a01b03909116905f907f3f67cc70f736070aaac75db90cef1ab4047521b73e8a38d02852e8bf1a91e7e0908290a35050610115565b5f602082840312156100f8575f5ffd5b81516001600160a01b038116811461010e575f5ffd5b9392505050565b610ea7806101225f395ff3fe608060405234801561000f575f5ffd5b50600436106100e8575f3560e01c80638456cb591161008f5780638456cb591461020a5780638da5cb5b14610212578063914c2ae2146102245780639a7a023814610246578063b32c4d8d14610259578063c7ad2fa2146102f6578063dd51ce2214610309578063e50924291461031c578063f2fde38b1461032f575f5ffd5b80633f4ba83a146100ec578063483fc3bb146100f65780635ac442821461011e5780635bc8e8f91461018c5780635c975abb146101ac578063638ccd02146101c057806369ff6abb146101e15780636dff2aba146101ea575b5f5ffd5b6100f4610342565b005b610109610104366004610bd9565b6103b2565b60405190151581526020015b60405180910390f35b61013161012c366004610c27565b6103cb565b60405161011591908151815260208083015190820152604080830151908201526060808301516001600160401b0316908201526080808301516001600160a01b03169082015260a09182015115159181019190915260c00190565b60015461019f906001600160a01b031681565b6040516101159190610c3e565b60015461010990600160a01b900460ff1681565b6101d36101ce366004610c52565b6104a6565b604051908152602001610115565b6101d360025481565b6101fd6101f8366004610cb8565b610688565b6040516101159190610cf6565b6100f4610704565b5f5461019f906001600160a01b031681565b610109610232366004610c27565b60046020525f908152604090205460ff1681565b6100f4610254366004610d2d565b610770565b6102b5610267366004610c27565b600360208190525f91825260409091208054600182015460028301549290930154909291906001600160401b03811690600160401b81046001600160a01b031690600160e01b900460ff1686565b604080519687526020870195909552938501929092526001600160401b031660608401526001600160a01b03166080830152151560a082015260c001610115565b6101d3610304366004610d74565b61080d565b6100f4610317366004610dcf565b610884565b61010961032a366004610bd9565b61092f565b6100f461033d366004610dcf565b6109c6565b5f546001600160a01b0316331461036b576040516282b42960e81b815260040160405180910390fd5b6001805460ff60a01b191690556040517f5db9ee0a495bf2e6ff9c91a7834c1ba4fdd244a5e8aa4e537bd38aeae4b073aa906103a8903390610c3e565b60405180910390a1565b5f836103bf868585610a6f565b1490505b949350505050565b6040805160c0810182525f80825260208201819052918101829052606081018290526080810182905260a08101919091525f8281526003602081905260409091200154600160e01b900460ff1661043557604051632785786f60e21b815260040160405180910390fd5b505f90815260036020818152604092839020835160c081018552815481526001820154928101929092526002810154938201939093529101546001600160401b0381166060830152600160401b81046001600160a01b03166080830152600160e01b900460ff16151560a082015290565b6001545f90600160a01b900460ff16156104d2576040516282b42960e81b815260040160405180910390fd5b6001546001600160a01b031633146104fc576040516282b42960e81b815260040160405180910390fd5b8361051a5760405163504570e360e01b815260040160405180910390fd5b8183111561053b5760405163561ce9bb60e01b815260040160405180910390fd5b5f8481526004602052604090205460ff161561056a5760405163a0bce24f60e01b815260040160405180910390fd5b60025f815461057890610dfc565b91829055506040805160c08101825286815260208082018781528284018781526001600160401b0342811660608087018281523360808901818152600160a08b018181525f8e81526003808d528e82209d518e559a518d840155985160028d015593519a9098018054915193511515600160e01b0260ff60e01b196001600160a01b03909516600160401b026001600160e01b03199093169b9097169a909a171791909116939093179096558b83526004855291869020805460ff19169093179092558451898152928301889052938201939093529293509091869184917fa33bf2a3a9e84740d41d0a3d8e439fb86420cbd26d148ba65a2d77d4a5e97a28910160405180910390a49392505050565b60605f838360405161069b929190610e20565b604080519182900382205f81815260056020908152908390208054808302860183019094528385529194509091908301828280156106f657602002820191905f5260205f20905b8154815260200190600101908083116106e2575b505050505091505092915050565b5f546001600160a01b0316331461072d576040516282b42960e81b815260040160405180910390fd5b6001805460ff60a01b1916600160a01b1790556040517f62e78cea01bee320cd4e420270b5ea74000d11b0c9f74754ebdbfc544b05a258906103a8903390610c3e565b600154600160a01b900460ff161561079a576040516282b42960e81b815260040160405180910390fd5b6001546001600160a01b031633146107c4576040516282b42960e81b815260040160405180910390fd5b5f8381526003602081905260409091200154600160e01b900460ff166107fd57604051632785786f60e21b815260040160405180910390fd5b610808838383610b12565b505050565b6001545f90600160a01b900460ff1615610839576040516282b42960e81b815260040160405180910390fd5b6001546001600160a01b03163314610863576040516282b42960e81b815260040160405180910390fd5b61086e8686866104a6565b905061087b818484610b12565b95945050505050565b5f546001600160a01b031633146108ad576040516282b42960e81b815260040160405180910390fd5b6001600160a01b0381166108d45760405163d92e233d60e01b815260040160405180910390fd5b6001546040516001600160a01b038084169216907f3f67cc70f736070aaac75db90cef1ab4047521b73e8a38d02852e8bf1a91e7e0905f90a3600180546001600160a01b0319166001600160a01b0392909216919091179055565b5f838152600360208181526040808420815160c08101835281548152600182015493810193909352600281015491830191909152909101546001600160401b0381166060830152600160401b81046001600160a01b03166080830152600160e01b900460ff16151560a082018190526109ab575f9150506103c3565b5f6109b7878686610a6f565b91519091149695505050505050565b5f546001600160a01b031633146109ef576040516282b42960e81b815260040160405180910390fd5b6001600160a01b038116610a165760405163d92e233d60e01b815260040160405180910390fd5b5f80546040516001600160a01b03808516939216917f8be0079c531659141344cd1fd0a4f28419497f9722a3daafe3b4186f6b6457e091a35f80546001600160a01b0319166001600160a01b0392909216919091179055565b5f8382825b81811015610b07575f868683818110610a8f57610a8f610e2f565b90506020020135905080841015610ad1576040805160208101869052908101829052606001604051602081830303815290604052805190602001209350610afe565b60408051602081018390529081018590526060016040516020818303038152906040528051906020012093505b50600101610a74565b509095945050505050565b5f8282604051610b23929190610e20565b604080519182900382205f8181526005602090815292812080546001810182559082529290209091018690559150849082907f63a6f5af58e056cc8fa63600831f2d061d828a106825ad840c4748a34df4ec5d90610b849087908790610e43565b60405180910390a350505050565b5f5f83601f840112610ba2575f5ffd5b5081356001600160401b03811115610bb8575f5ffd5b6020830191508360208260051b8501011115610bd2575f5ffd5b9250929050565b5f5f5f5f60608587031215610bec575f5ffd5b843593506020850135925060408501356001600160401b03811115610c0f575f5ffd5b610c1b87828801610b92565b95989497509550505050565b5f60208284031215610c37575f5ffd5b5035919050565b6001600160a01b0391909116815260200190565b5f5f5f60608486031215610c64575f5ffd5b505081359360208301359350604090920135919050565b5f5f83601f840112610c8b575f5ffd5b5081356001600160401b03811115610ca1575f5ffd5b602083019150836020828501011115610bd2575f5ffd5b5f5f60208385031215610cc9575f5ffd5b82356001600160401b03811115610cde575f5ffd5b610cea85828601610c7b565b90969095509350505050565b602080825282518282018190525f918401906040840190835b81811015610b07578351835260209384019390920191600101610d0f565b5f5f5f60408486031215610d3f575f5ffd5b8335925060208401356001600160401b03811115610d5b575f5ffd5b610d6786828701610c7b565b9497909650939450505050565b5f5f5f5f5f60808688031215610d88575f5ffd5b85359450602086013593506040860135925060608601356001600160401b03811115610db2575f5ffd5b610dbe88828901610c7b565b969995985093965092949392505050565b5f60208284031215610ddf575f5ffd5b81356001600160a01b0381168114610df5575f5ffd5b9392505050565b5f60018201610e1957634e487b7160e01b5f52601160045260245ffd5b5060010190565b818382375f9101908152919050565b634e487b7160e01b5f52603260045260245ffd5b60208152816020820152818360408301375f818301604090810191909152601f909201601f1916010191905056fea2646970667358221220d5950af4fa6fbf66fcfe51b7415111b3af3b91191336b3973982ae1a2c7bd20d64736f6c634300081c0033",
  "linkReferences": {},
  "deployedLinkReferences": {},
  "immutableReferences": {},
  "inputSourceName": "project/contracts/TraceabilityMerkleRegistry.sol",
  "buildInfoId": "solc-0_8_28-7f6f9a71e09218a5d00ba0bd4720ed34f7352f81"
}