{
  "_format": "hh3-artifact-1",
  "contractName": "TraceabilityMerkleRegistry",
  "sourceName": "contracts/TraceabilityMerkleRegistry.sol",
  "abi": [
    {
      "inputs": [],
      "stateMutability": "nonpayable",
      "type": "constructor"
    },
    {
      "inputs": [],
      "name": "BatchAlreadyClosed",
      "type": "error"
    },
    {
      "inputs": [],
      "name": "BatchCodeAlreadyUsed",
      "type": "error"
    },
    {
      "inputs": [],
      "name": "InvalidBatch",
      "type": "error"
    },
    {
      "inputs": [],
      "name": "InvalidEventType",
      "type": "error"
    },
    {
      "inputs": [],
      "name": "InvalidProduct",
      "type": "error"
    },
    {
      "inputs": [],
      "name": "MerkleRootAlreadySet",
      "type": "error"
    },
    {
      "inputs": [],
      "name": "PausedContract",
      "type": "error"
    },
    {
      "inputs": [],
      "name": "Unauthorized",
      "type": "error"
    },
    {
      "inputs": [],
      "name": "ZeroAddress",
      "type": "error"
    },
    {
      "anonymous": false,
      "inputs": [
        {
          "indexed": true,
          "internalType": "uint256",
          "name": "batchId",
          "type": "uint256"
        },
        {
          "indexed": true,
          "internalType": "bytes32",
          "name": "batchCodeHash",
          "type": "bytes32"
        },
        {
          "indexed": false,
          "internalType": "string",
          "name": "batchCode",
          "type": "string"
        }
      ],
      "name": "BatchCodeBound",
      "type": "event"
    },
    {
      "anonymous": false,
      "inputs": [
        {
          "indexed": true,
          "internalType": "uint256",
          "name": "batchId",
          "type": "uint256"
        },
        {
          "indexed": true,
          "internalType": "uint256",
          "name": "productId",
          "type": "uint256"
        },
        {
          "indexed": true,
          "internalType": "address",
          "name": "creator",
          "type": "address"
        },
        {
          "indexed": false,
          "internalType": "bytes32",
          "name": "initialDataHash",
          "type": "bytes32"
        }
      ],
      "name": "BatchCreated",
      "type": "event"
    },
    {
      "anonymous": false,
      "inputs": [
        {
          "indexed": true,
          "internalType": "uint256",
          "name": "batchId",
          "type": "uint256"
        },
        {
          "indexed": true,
          "internalType": "bytes32",
          "name": "merkleRoot",
          "type": "bytes32"
        },
        {
          "indexed": true,
          "internalType": "address",
          "name": "committer",
          "type": "address"
        }
      ],
      "name": "BatchMerkleRootCommitted",
      "type": "event"
    },
    {
      "anonymous": false,
      "inputs": [
        {
          "indexed": true,
          "internalType": "address",
          "name": "previousOwner",
          "type": "address"
        },
        {
          "indexed": true,
          "internalType": "address",
          "name": "newOwner",
          "type": "address"
        }
      ],
      "name": "OwnershipTransferred",
      "type": "event"
    },
    {
      "anonymous": false,
      "inputs": [
        {
          "indexed": false,
          "internalType": "address",
          "name": "account",
          "type": "address"
        }
      ],
      "name": "Paused",
      "type": "event"
    },
    {
      "anonymous": false,
      "inputs": [
        {
          "indexed": true,
          "internalType": "uint256",
          "name": "productId",
          "type": "uint256"
        },
        {
          "indexed": true,
          "internalType": "address",
          "name": "owner",
          "type": "address"
        },
        {
          "indexed": false,
          "internalType": "string",
          "name": "name",
          "type": "string"
        },
        {
          "indexed": false,
          "internalType": "string",
          "name": "metadataURI",
          "type": "string"
        }
      ],
      "name": "ProductCreated",
      "type": "event"
    },
    {
      "anonymous": false,
      "inputs": [
        {
          "indexed": true,
          "internalType": "address",
          "name": "account",
          "type": "address"
        },
        {
          "indexed": false,
          "internalType": "uint256",
          "name": "roles",
          "type": "uint256"
        }
      ],
      "name": "RolesUpdated",
      "type": "event"
    },
    {
      "anonymous": false,
      "inputs": [
        {
          "indexed": true,
          "internalType": "uint256",
          "name": "eventId",
          "type": "uint256"
        },
        {
          "indexed": true,
          "internalType": "uint256",
          "name": "batchId",
          "type": "uint256"
        },
        {
          "indexed": false,
          "internalType": "enum TraceabilityMerkleRegistry.EventType",
          "name": "eventType",
          "type": "uint8"
        },
        {
          "indexed": true,
          "internalType": "address",
          "name": "actor",
          "type": "address"
        },
        {
          "indexed": false,
          "internalType": "uint64",
          "name": "timestamp",
          "type": "uint64"
        },
        {
          "indexed": false,
          "internalType": "bytes32",
          "name": "dataHash",
          "type": "bytes32"
        }
      ],
      "name": "TraceEventRecorded",
      "type": "event"
    },
    {
      "anonymous": false,
      "inputs": [
        {
          "indexed": false,
          "internalType": "address",
          "name": "account",
          "type": "address"
        }
      ],
      "name": "Unpaused",
      "type": "event"
    },
    {
      "inputs": [],
      "name": "ROLE_AUDITOR",
      "outputs": [
        {
          "internalType": "uint256",
          "name": "",
          "type": "uint256"
        }
      ],
      "stateMutability": "view",
      "type": "function"
    },
    {
      "inputs": [],
      "name": "ROLE_PROCESSOR",
      "outputs": [
        {
          "internalType": "uint256",
          "name": "",
          "type": "uint256"
        }
      ],
      "stateMutability": "view",
      "type": "function"
    },
    {
      "inputs": [],
      "name": "ROLE_PRODUCER",
      "outputs": [
        {
          "internalType": "uint256",
          "name": "",
          "type": "uint256"
        }
      ],
      "stateMutability": "view",
      "type": "function"
    },
    {
      "inputs": [],
      "name": "ROLE_RETAILER",
      "outputs": [
        {
          "internalType": "uint256",
          "name": "",
          "type": "uint256"
        }
      ],
      "stateMutability": "view",
      "type": "function"
    },
    {
      "inputs": [],
      "name": "ROLE_TRANSPORTER",
      "outputs": [
        {
          "internalType": "uint256",
          "name": "",
          "type": "uint256"
        }
      ],
      "stateMutability": "view",
      "type": "function"
    },
    {
      "inputs": [
        {
          "internalType": "bytes32",
          "name": "",
          "type": "bytes32"
        }
      ],
      "name": "batchCodeHashToBatchId",
      "outputs": [
        {
          "internalType": "uint256",
          "name": "",
          "type": "uint256"
        }
      ],
      "stateMutability": "view",
      "type": "function"
    },
    {
      "inputs": [
        {
          "internalType": "uint256",
          "name": "",
          "type": "uint256"
        },
        {
          "internalType": "uint256",
          "name": "",
          "type": "uint256"
        }
      ],
      "name": "batchEvents",
      "outputs": [
        {
          "internalType": "uint256",
          "name": "",
          "type": "uint256"
        }
      ],
      "stateMutability": "view",
      "type": "function"
    },
    {
      "inputs": [
        {
          "internalType": "uint256",
          "name": "",
          "type": "uint256"
        }
      ],
      "name": "batchMerkleRoot",
      "outputs": [
        {
          "internalType": "bytes32",
          "name": "",
          "type": "bytes32"
        }
      ],
      "stateMutability": "view",
      "type": "function"
    },
    {
      "inputs": [
        {
          "internalType": "uint256",
          "name": "",
          "type": "uint256"
        }
      ],
      "name": "batches",
      "outputs": [
        {
          "internalType": "uint256",
          "name": "productId",
          "type": "uint256"
        },
        {
          "internalType": "address",
          "name": "creator",
          "type": "address"
        },
        {
          "internalType": "address",
          "name": "currentOwner",
          "type": "address"
        },
        {
          "internalType": "bytes32",
          "name": "initialDataHash",
          "type": "bytes32"
        },
        {
          "internalType": "bool",
          "name": "exists",
          "type": "bool"
        },
        {
          "internalType": "bool",
          "name": "closed",
          "type": "bool"
        }
      ],
      "stateMutability": "view",
      "type": "function"
    },
    {
      "inputs": [
        {
          "internalType": "uint256",
          "name": "batchId",
          "type": "uint256"
        },
        {
          "internalType": "string",
          "name": "batchCode",
          "type": "string"
        }
      ],
      "name": "bindBatchCode",
      "outputs": [],
      "stateMutability": "nonpayable",
      "type": "function"
    },
    {
      "inputs": [
        {
          "internalType": "uint256",
          "name": "batchId",
          "type": "uint256"
        },
        {
          "internalType": "bytes32",
          "name": "merkleRoot",
          "type": "bytes32"
        }
      ],
      "name": "commitBatchMerkleRoot",
      "outputs": [],
      "stateMutability": "nonpayable",
      "type": "function"
    },
    {
      "inputs": [
        {
          "internalType": "uint256",
          "name": "productId",
          "type": "uint256"
        },
        {
          "internalType": "bytes32",
          "name": "initialDataHash",
          "type": "bytes32"
        }
      ],
      "name": "createBatch",
      "outputs": [
        {
          "internalType": "uint256",
          "name": "batchId",
          "type": "uint256"
        }
      ],
      "stateMutability": "nonpayable",
      "type": "function"
    },
    {
      "inputs": [
        {
          "internalType": "string",
          "name": "name",
          "type": "string"
        },
        {
          "internalType": "string",
          "name": "metadataURI",
          "type": "string"
        }
      ],
      "name": "createProduct",
      "outputs": [
        {
          "internalType": "uint256",
          "name": "productId",
          "type": "uint256"
        }
      ],
      "stateMutability": "nonpayable",
      "type": "function"
    },
    {
      "inputs": [
        {
          "internalType": "uint256",
          "name": "",
          "type": "uint256"
        }
      ],
      "name": "eventsById",
      "outputs": [
        {
          "internalType": "uint256",
          "name": "batchId",
          "type": "uint256"
        },
        {
          "internalType": "enum TraceabilityMerkleRegistry.EventType",
          "name": "eventType",
          "type": "uint8"
        },
        {
          "internalType": "address",
          "name": "actor",
          "type": "address"
        },
        {
          "internalType": "uint64",
          "name": "timestamp",
          "type": "uint64"
        },
        {
          "internalType": "bytes32",
          "name": "dataHash",
          "type": "bytes32"
        }
      ],
      "stateMutability": "view",
      "type": "function"
    },
    {
      "inputs": [
        {
          "internalType": "uint256",
          "name": "batchId",
          "type": "uint256"
        }
      ],
      "name": "getBatchEvents",
      "outputs": [
        {
          "internalType": "uint256[]",
          "name": "",
          "type": "uint256[]"
        }
      ],
      "stateMutability": "view",
      "type": "function"
    },
    {
      "inputs": [
        {
          "internalType": "address",
          "name": "account",
          "type": "address"
        },
        {
          "internalType": "uint256",
          "name": "role",
          "type": "uint256"
        }
      ],
      "name": "hasRole",
      "outputs": [
        {
          "internalType": "bool",
          "name": "",
          "type": "bool"
        }
      ],
      "stateMutability": "view",
      "type": "function"
    },
    {
      "inputs": [],
      "name": "nextBatchId",
      "outputs": [
        {
          "internalType": "uint256",
          "name": "",
          "type": "uint256"
        }
      ],
      "stateMutability": "view",
      "type": "function"
    },
    {
      "inputs": [],
      "name": "nextEventId",
      "outputs": [
        {
          "internalType": "uint256",
          "name": "",
          "type": "uint256"
        }
      ],
      "stateMutability": "view",
      "type": "function"
    },
    {
      "inputs": [],
      "name": "nextProductId",
      "outputs": [
        {
          "internalType": "uint256",
          "name": "",
          "type": "uint256"
        }
      ],
      "stateMutability": "view",
      "type": "function"
    },
    {
      "inputs": [],
      "name": "owner",
      "outputs": [
        {
          "internalType": "address",
          "name": "",
          "type": "address"
        }
      ],
      "stateMutability": "view",
      "type": "function"
    },
    {
      "inputs": [],
      "name": "pause",
      "outputs": [],
      "stateMutability": "nonpayable",
      "type": "function"
    },
    {
      "inputs": [],
      "name": "paused",
      "outputs": [
        {
          "internalType": "bool",
          "name": "",
          "type": "bool"
        }
      ],
      "stateMutability": "view",
      "type": "function"
    },
    {
      "inputs": [
        {
          "internalType": "uint256",
          "name": "",
          "type": "uint256"
        }
      ],
      "name": "products",
      "outputs": [
        {
          "internalType": "string",
          "name": "name",
          "type": "string"
        },
        {
          "internalType": "string",
          "name": "metadataURI",
          "type": "string"
        },
        {
          "internalType": "address",
          "name": "owner",
          "type": "address"
        },
        {
          "internalType": "bool",
          "name": "exists",
          "type": "bool"
        }
      ],
      "stateMutability": "view",
      "type": "function"
    },
    {
      "inputs": [
        {
          "internalType": "uint256",
          "name": "batchId",
          "type": "uint256"
        },
        {
          "internalType": "enum TraceabilityMerkleRegistry.EventType",
          "name": "eventType",
          "type": "uint8"
        },
        {
          "internalType": "bytes32",
          "name": "dataHash",
          "type": "bytes32"
        }
      ],
      "name": "recordTraceEvent",
      "outputs": [],
      "stateMutability": "nonpayable",
      "type": "function"
    },
    {
      "inputs": [
        {
          "internalType": "address",
          "name": "",
          "type": "address"
        }
      ],
      "name": "roles",
      "outputs": [
        {
          "internalType": "uint256",
          "name": "",
          "type": "uint256"
        }
      ],
      "stateMutability": "view",
      "type": "function"
    },
    {
      "inputs": [
        {
          "internalType": "address",
          "name": "account",
          "type": "address"
        },
        {
          "internalType": "uint256",
          "name": "newRoles",
          "type": "uint256"
        }
      ],
      "name": "setRoles",
      "outputs": [],
      "stateMutability": "nonpayable",
      "type": "function"
    },
    {
      "inputs": [
        {
          "internalType": "address",
          "name": "newOwner",
          "type": "address"
        }
      ],
      "name": "transferOwnership",
      "outputs": [],
      "stateMutability": "nonpayable",
      "type": "function"
    },
    {
      "inputs": [],
      "name": "unpause",
      "outputs": [],
      "stateMutability": "nonpayable",
      "type": "function"
    },
    {
      "inputs": [
        {
          "internalType": "bytes32",
          "name": "leaf",
          "type": "bytes32"
        },
        {
          "internalType": "bytes32",
          "name": "root",
          "type": "bytes32"
        },
        {
          "internalType": "bytes32[]",
          "name": "proof",
          "type": "bytes32[]"
        }
      ],
      "name": "verifyWithRoot",
      "outputs": [
        {
          "internalType": "bool",
          "name": "",
          "type": "bool"
        }
      ],
      "stateMutability": "pure",
      "type": "function"
    }
  ],
  "bytecode": "0x6080604052600160035560016004556001600555348015601d575f5ffd5b50335f5f6101000a81548173ffffffffffffffffffffffffffffffffffffffff021916908373ffffffffffffffffffffffffffffffffffffffff1602179055503373ffffffffffffffffffffffffffffffffffffffff165f73ffffffffffffffffffffffffffffffffffffffff167f8be0079c531659141344cd1fd0a4f28419497f9722a3daafe3b4186f6b6457e060405160405180910390a3613268806100c45f395ff3fe608060405234801561000f575f5ffd5b50600436106101cd575f3560e01c806387592bce11610102578063b0a4542e116100a0578063c4d6b7d51161006f578063c4d6b7d51461053d578063de75348c1461056d578063ecd406601461059d578063f2fde38b146105cd576101cd565b8063b0a4542e146104b0578063b32c4d8d146104cc578063b43857e814610501578063bc7b8b241461051f576101cd565b806399374642116100dc57806399374642146104285780639a7a0238146104585780639f9d903a14610474578063a13fbeed14610492576101cd565b806387592bce146103be5780638ace69cf146103ee5780638da5cb5b1461040a576101cd565b80634de91a631161016f5780636d7524ee116101495780636d7524ee1461032f5780637acc0b20146103635780638456cb59146103965780638462a7f8146103a0576101cd565b80634de91a63146102c35780635c975abb146102e15780635c97f4a2146102ff576101cd565b80633f029aaf116101ab5780633f029aaf1461023b5780633f4ba83a14610259578063483fc3bb146102635780634cd6857814610293576101cd565b806321a6f8aa146101d157806333a3ad8f146101ef578063391224c21461020b575b5f5ffd5b6101d96105e9565b6040516101e69190612555565b60405180910390f35b610209600480360381019061020491906125fa565b6105ee565b005b61022560048036038101906102209190612638565b61076c565b604051610232919061267b565b60405180910390f35b610243610781565b6040516102509190612555565b60405180910390f35b610261610786565b005b61027d6004803603810190610278919061271f565b61085d565b60405161028a91906127aa565b60405180910390f35b6102ad60048036038101906102a891906127c3565b610875565b6040516102ba9190612555565b60405180910390f35b6102cb61088a565b6040516102d89190612555565b60405180910390f35b6102e9610890565b6040516102f691906127aa565b60405180910390f35b610319600480360381019061031491906125fa565b6108a2565b60405161032691906127aa565b60405180910390f35b61034960048036038101906103449190612638565b6108ee565b60405161035a959493929190612892565b60405180910390f35b61037d60048036038101906103789190612638565b610960565b60405161038d9493929190612953565b60405180910390f35b61039e610ac4565b005b6103a8610b9c565b6040516103b59190612555565b60405180910390f35b6103d860048036038101906103d391906129f9565b610ba2565b6040516103e59190612555565b60405180910390f35b61040860048036038101906104039190612a77565b610e96565b005b6104126110f2565b60405161041f9190612ab5565b60405180910390f35b610442600480360381019061043d9190612ace565b611116565b60405161044f9190612555565b60405180910390f35b610472600480360381019061046d9190612af9565b61112b565b005b61047c611421565b6040516104899190612555565b60405180910390f35b61049a611427565b6040516104a79190612555565b60405180910390f35b6104ca60048036038101906104c59190612b79565b61142c565b005b6104e660048036038101906104e19190612638565b61169f565b6040516104f896959493929190612bc9565b60405180910390f35b61050961172e565b6040516105169190612555565b60405180910390f35b610527611733565b6040516105349190612555565b60405180910390f35b61055760048036038101906105529190612a77565b611738565b6040516105649190612555565b60405180910390f35b61058760048036038101906105829190612c28565b611c06565b6040516105949190612555565b60405180910390f35b6105b760048036038101906105b29190612638565b611c31565b6040516105c49190612d1d565b60405180910390f35b6105e760048036038101906105e29190612ace565b611c98565b005b600281565b5f5f9054906101000a900473ffffffffffffffffffffffffffffffffffffffff1673ffffffffffffffffffffffffffffffffffffffff163373ffffffffffffffffffffffffffffffffffffffff1614610673576040517f82b4290000000000000000000000000000000000000000000000000000000000815260040160405180910390fd5b5f73ffffffffffffffffffffffffffffffffffffffff168273ffffffffffffffffffffffffffffffffffffffff16036106d8576040517fd92e233d00000000000000000000000000000000000000000000000000000000815260040160405180910390fd5b8060015f8473ffffffffffffffffffffffffffffffffffffffff1673ffffffffffffffffffffffffffffffffffffffff1681526020019081526020015f20819055508173ffffffffffffffffffffffffffffffffffffffff167f715ad5ce61fc9595c7b415289d59cf203f23a94fa06f04af7e489a0a76e1fe26826040516107609190612555565b60405180910390a25050565b600b602052805f5260405f205f915090505481565b601081565b5f5f9054906101000a900473ffffffffffffffffffffffffffffffffffffffff1673ffffffffffffffffffffffffffffffffffffffff163373ffffffffffffffffffffffffffffffffffffffff161461080b576040517f82b4290000000000000000000000000000000000000000000000000000000000815260040160405180910390fd5b5f60025f6101000a81548160ff0219169083151502179055507f5db9ee0a495bf2e6ff9c91a7834c1ba4fdd244a5e8aa4e537bd38aeae4b073aa336040516108539190612ab5565b60405180910390a1565b5f8361086a868585611e3e565b149050949350505050565b600a602052805f5260405f205f915090505481565b60035481565b60025f9054906101000a900460ff1681565b5f5f8260015f8673ffffffffffffffffffffffffffffffffffffffff1673ffffffffffffffffffffffffffffffffffffffff1681526020019081526020015f2054161415905092915050565b6008602052805f5260405f205f91509050805f015490806001015f9054906101000a900460ff16908060010160019054906101000a900473ffffffffffffffffffffffffffffffffffffffff16908060010160159054906101000a900467ffffffffffffffff16908060020154905085565b6006602052805f5260405f205f91509050805f01805461097f90612d6a565b80601f01602080910402602001604051908101604052809291908181526020018280546109ab90612d6a565b80156109f65780601f106109cd576101008083540402835291602001916109f6565b820191905f5260205f20905b8154815290600101906020018083116109d957829003601f168201915b505050505090806001018054610a0b90612d6a565b80601f0160208091040260200160405190810160405280929190818152602001828054610a3790612d6a565b8015610a825780601f10610a5957610100808354040283529160200191610a82565b820191905f5260205f20905b815481529060010190602001808311610a6557829003601f168201915b505050505090806002015f9054906101000a900473ffffffffffffffffffffffffffffffffffffffff16908060020160149054906101000a900460ff16905084565b5f5f9054906101000a900473ffffffffffffffffffffffffffffffffffffffff1673ffffffffffffffffffffffffffffffffffffffff163373ffffffffffffffffffffffffffffffffffffffff1614610b49576040517f82b4290000000000000000000000000000000000000000000000000000000000815260040160405180910390fd5b600160025f6101000a81548160ff0219169083151502179055507f62e78cea01bee320cd4e420270b5ea74000d11b0c9f74754ebdbfc544b05a25833604051610b929190612ab5565b60405180910390a1565b60045481565b5f60025f9054906101000a900460ff1615610be9576040517ff322ab2600000000000000000000000000000000000000000000000000000000815260040160405180910390fd5b60015f8160015f3373ffffffffffffffffffffffffffffffffffffffff1673ffffffffffffffffffffffffffffffffffffffff1681526020019081526020015f205416148015610c8557505f5f9054906101000a900473ffffffffffffffffffffffffffffffffffffffff1673ffffffffffffffffffffffffffffffffffffffff163373ffffffffffffffffffffffffffffffffffffffff1614155b15610cbc576040517f82b4290000000000000000000000000000000000000000000000000000000000815260040160405180910390fd5b60035f815480929190610cce90612dc7565b919050559150604051806080016040528087878080601f0160208091040260200160405190810160405280939291908181526020018383808284375f81840152601f19601f82011690508083019250505050505050815260200185858080601f0160208091040260200160405190810160405280939291908181526020018383808284375f81840152601f19601f8201169050808301925050505050505081526020013373ffffffffffffffffffffffffffffffffffffffff1681526020016001151581525060065f8481526020019081526020015f205f820151815f019081610db89190612fdb565b506020820151816001019081610dce9190612fdb565b506040820151816002015f6101000a81548173ffffffffffffffffffffffffffffffffffffffff021916908373ffffffffffffffffffffffffffffffffffffffff16021790555060608201518160020160146101000a81548160ff0219169083151502179055509050503373ffffffffffffffffffffffffffffffffffffffff16827f5b6548625353cfbb6de6bbb313a0b1cf8efbb45f2874f24c9d352590e3e366ff88888888604051610e8594939291906130e4565b60405180910390a350949350505050565b60025f9054906101000a900460ff1615610edc576040517ff322ab2600000000000000000000000000000000000000000000000000000000815260040160405180910390fd5b8160075f8281526020019081526020015f206004015f9054906101000a900460ff16610f34576040517f33b094a100000000000000000000000000000000000000000000000000000000815260040160405180910390fd5b5f5f1b8203610f6f576040517f2e8c904e00000000000000000000000000000000000000000000000000000000815260040160405180910390fd5b5f5f1b600b5f8581526020019081526020015f205414610fbb576040517f6006d96400000000000000000000000000000000000000000000000000000000815260040160405180910390fd5b5f60015f3373ffffffffffffffffffffffffffffffffffffffff1673ffffffffffffffffffffffffffffffffffffffff1681526020019081526020015f205490505f5f9054906101000a900473ffffffffffffffffffffffffffffffffffffffff1673ffffffffffffffffffffffffffffffffffffffff163373ffffffffffffffffffffffffffffffffffffffff161415801561105a57505f60108216145b15611091576040517f82b4290000000000000000000000000000000000000000000000000000000000815260040160405180910390fd5b82600b5f8681526020019081526020015f20819055503373ffffffffffffffffffffffffffffffffffffffff1683857f6cc668dfcfb73b1f297b65a8bd52a62f4c634e392247b9d7c35b1e4b590e577f60405160405180910390a450505050565b5f5f9054906101000a900473ffffffffffffffffffffffffffffffffffffffff1681565b6001602052805f5260405f205f915090505481565b60025f9054906101000a900460ff1615611171576040517ff322ab2600000000000000000000000000000000000000000000000000000000815260040160405180910390fd5b8260075f8281526020019081526020015f206004015f9054906101000a900460ff166111c9576040517f33b094a100000000000000000000000000000000000000000000000000000000815260040160405180910390fd5b5f60075f8681526020019081526020015f209050806002015f9054906101000a900473ffffffffffffffffffffffffffffffffffffffff1673ffffffffffffffffffffffffffffffffffffffff163373ffffffffffffffffffffffffffffffffffffffff161415801561128b5750806001015f9054906101000a900473ffffffffffffffffffffffffffffffffffffffff1673ffffffffffffffffffffffffffffffffffffffff163373ffffffffffffffffffffffffffffffffffffffff1614155b80156112e357505f5f9054906101000a900473ffffffffffffffffffffffffffffffffffffffff1673ffffffffffffffffffffffffffffffffffffffff163373ffffffffffffffffffffffffffffffffffffffff1614155b1561131a576040517f82b4290000000000000000000000000000000000000000000000000000000000815260040160405180910390fd5b8060040160019054906101000a900460ff1615611363576040517f6bdcb88a00000000000000000000000000000000000000000000000000000000815260040160405180910390fd5b5f848460405161137492919061314b565b604051809103902090505f600a5f8381526020019081526020015f2054146113c8576040517fe092299d00000000000000000000000000000000000000000000000000000000815260040160405180910390fd5b85600a5f8381526020019081526020015f208190555080867f506c82a4b9513c193f67b1622dbdf0b23390c1ad17a36d51e1db7b4410c742958787604051611411929190613163565b60405180910390a3505050505050565b60055481565b600181565b60025f9054906101000a900460ff1615611472576040517ff322ab2600000000000000000000000000000000000000000000000000000000815260040160405180910390fd5b8260075f8281526020019081526020015f206004015f9054906101000a900460ff166114ca576040517f33b094a100000000000000000000000000000000000000000000000000000000815260040160405180910390fd5b5f60075f8681526020019081526020015f2090508060040160019054906101000a900460ff1615611527576040517f6bdcb88a00000000000000000000000000000000000000000000000000000000815260040160405180910390fd5b6115318433611ef1565b60036007811115611545576115446127ee565b5b846007811115611558576115576127ee565b5b1480611588575060046007811115611573576115726127ee565b5b846007811115611586576115856127ee565b5b145b156115d05733816002015f6101000a81548173ffffffffffffffffffffffffffffffffffffffff021916908373ffffffffffffffffffffffffffffffffffffffff1602179055505b600560078111156115e4576115e36127ee565b5b8460078111156115f7576115f66127ee565b5b1480611627575060066007811115611612576116116127ee565b5b846007811115611625576116246127ee565b5b145b1561168c5733816002015f6101000a81548173ffffffffffffffffffffffffffffffffffffffff021916908373ffffffffffffffffffffffffffffffffffffffff16021790555060018160040160016101000a81548160ff0219169083151502179055505b6116988585338661230c565b5050505050565b6007602052805f5260405f205f91509050805f015490806001015f9054906101000a900473ffffffffffffffffffffffffffffffffffffffff1690806002015f9054906101000a900473ffffffffffffffffffffffffffffffffffffffff1690806003015490806004015f9054906101000a900460ff16908060040160019054906101000a900460ff16905086565b600881565b600481565b5f60025f9054906101000a900460ff161561177f576040517ff322ab2600000000000000000000000000000000000000000000000000000000815260040160405180910390fd5b60015f8160015f3373ffffffffffffffffffffffffffffffffffffffff1673ffffffffffffffffffffffffffffffffffffffff1681526020019081526020015f20541614801561181b57505f5f9054906101000a900473ffffffffffffffffffffffffffffffffffffffff1673ffffffffffffffffffffffffffffffffffffffff163373ffffffffffffffffffffffffffffffffffffffff1614155b15611852576040517f82b4290000000000000000000000000000000000000000000000000000000000815260040160405180910390fd5b5f60065f8681526020019081526020015f206040518060800160405290815f8201805461187e90612d6a565b80601f01602080910402602001604051908101604052809291908181526020018280546118aa90612d6a565b80156118f55780601f106118cc576101008083540402835291602001916118f5565b820191905f5260205f20905b8154815290600101906020018083116118d857829003601f168201915b5050505050815260200160018201805461190e90612d6a565b80601f016020809104026020016040519081016040528092919081815260200182805461193a90612d6a565b80156119855780601f1061195c57610100808354040283529160200191611985565b820191905f5260205f20905b81548152906001019060200180831161196857829003601f168201915b50505050508152602001600282015f9054906101000a900473ffffffffffffffffffffffffffffffffffffffff1673ffffffffffffffffffffffffffffffffffffffff1673ffffffffffffffffffffffffffffffffffffffff1681526020016002820160149054906101000a900460ff16151515158152505090508060600151611a3b576040517fa661c0e700000000000000000000000000000000000000000000000000000000815260040160405180910390fd5b60045f815480929190611a4d90612dc7565b9190505592506040518060c001604052808681526020013373ffffffffffffffffffffffffffffffffffffffff1681526020013373ffffffffffffffffffffffffffffffffffffffff1681526020018581526020016001151581526020015f151581525060075f8581526020019081526020015f205f820151815f01556020820151816001015f6101000a81548173ffffffffffffffffffffffffffffffffffffffff021916908373ffffffffffffffffffffffffffffffffffffffff1602179055506040820151816002015f6101000a81548173ffffffffffffffffffffffffffffffffffffffff021916908373ffffffffffffffffffffffffffffffffffffffff160217905550606082015181600301556080820151816004015f6101000a81548160ff02191690831515021790555060a08201518160040160016101000a81548160ff021916908315150217905550905050611bae835f338761230c565b3373ffffffffffffffffffffffffffffffffffffffff1685847fb8e4c77c5f3171f096fd7e3977a2eebf1c3eefe6547f83f12fe70bf3361daa7d87604051611bf6919061267b565b60405180910390a4505092915050565b6009602052815f5260405f208181548110611c1f575f80fd5b905f5260205f20015f91509150505481565b606060095f8381526020019081526020015f20805480602002602001604051908101604052809291908181526020018280548015611c8c57602002820191905f5260205f20905b815481526020019060010190808311611c78575b50505050509050919050565b5f5f9054906101000a900473ffffffffffffffffffffffffffffffffffffffff1673ffffffffffffffffffffffffffffffffffffffff163373ffffffffffffffffffffffffffffffffffffffff1614611d1d576040517f82b4290000000000000000000000000000000000000000000000000000000000815260040160405180910390fd5b5f73ffffffffffffffffffffffffffffffffffffffff168173ffffffffffffffffffffffffffffffffffffffff1603611d82576040517fd92e233d00000000000000000000000000000000000000000000000000000000815260040160405180910390fd5b8073ffffffffffffffffffffffffffffffffffffffff165f5f9054906101000a900473ffffffffffffffffffffffffffffffffffffffff1673ffffffffffffffffffffffffffffffffffffffff167f8be0079c531659141344cd1fd0a4f28419497f9722a3daafe3b4186f6b6457e060405160405180910390a3805f5f6101000a81548173ffffffffffffffffffffffffffffffffffffffff021916908373ffffffffffffffffffffffffffffffffffffffff16021790555050565b5f5f8490505f8484905090505f5f90505b81811015611ee4575f868683818110611e6b57611e6a613185565b5b90506020020135905080841015611eac578381604051602001611e8f9291906131d2565b604051602081830303815290604052805190602001209350611ed8565b8084604051602001611ebf9291906131d2565b6040516020818303038152906040528051906020012093505b81600101915050611e4f565b5081925050509392505050565b5f60015f8373ffffffffffffffffffffffffffffffffffffffff1673ffffffffffffffffffffffffffffffffffffffff1681526020019081526020015f205490505f5f9054906101000a900473ffffffffffffffffffffffffffffffffffffffff1673ffffffffffffffffffffffffffffffffffffffff168273ffffffffffffffffffffffffffffffffffffffff1603611f8b5750612308565b5f6007811115611f9e57611f9d6127ee565b5b836007811115611fb157611fb06127ee565b5b03611ff7575f6001821603611ff2576040517f82b4290000000000000000000000000000000000000000000000000000000000815260040160405180910390fd5b612306565b6001600781111561200b5761200a6127ee565b5b83600781111561201e5761201d6127ee565b5b03612067575f6002600117821603612062576040517f82b4290000000000000000000000000000000000000000000000000000000000815260040160405180910390fd5b612305565b6002600781111561207b5761207a6127ee565b5b83600781111561208e5761208d6127ee565b5b036120da575f60046002600117178216036120d5576040517f82b4290000000000000000000000000000000000000000000000000000000000815260040160405180910390fd5b612304565b600360078111156120ee576120ed6127ee565b5b836007811115612101576121006127ee565b5b0361214a575f6008600217821603612145576040517f82b4290000000000000000000000000000000000000000000000000000000000815260040160405180910390fd5b612303565b6004600781111561215e5761215d6127ee565b5b836007811115612171576121706127ee565b5b036121ba575f60026008178216036121b5576040517f82b4290000000000000000000000000000000000000000000000000000000000815260040160405180910390fd5b612302565b600560078111156121ce576121cd6127ee565b5b8360078111156121e1576121e06127ee565b5b03612227575f6008821603612222576040517f82b4290000000000000000000000000000000000000000000000000000000000815260040160405180910390fd5b612301565b6006600781111561223b5761223a6127ee565b5b83600781111561224e5761224d6127ee565b5b0361229a575f6010600860011717821603612295576040517f82b4290000000000000000000000000000000000000000000000000000000000815260040160405180910390fd5b612300565b6007808111156122ad576122ac6127ee565b5b8360078111156122c0576122bf6127ee565b5b036122ff575f81036122fe576040517f82b4290000000000000000000000000000000000000000000000000000000000815260040160405180910390fd5b5b5b5b5b5b5b5b5b505b5050565b60078081111561231f5761231e6127ee565b5b60ff16836007811115612335576123346127ee565b5b60ff161115612370576040517f2e8c904e00000000000000000000000000000000000000000000000000000000815260040160405180910390fd5b5f60055f81548092919061238390612dc7565b9190505590506040518060a001604052808681526020018560078111156123ad576123ac6127ee565b5b81526020018473ffffffffffffffffffffffffffffffffffffffff1681526020014267ffffffffffffffff1681526020018381525060085f8381526020019081526020015f205f820151815f01556020820151816001015f6101000a81548160ff02191690836007811115612425576124246127ee565b5b021790555060408201518160010160016101000a81548173ffffffffffffffffffffffffffffffffffffffff021916908373ffffffffffffffffffffffffffffffffffffffff16021790555060608201518160010160156101000a81548167ffffffffffffffff021916908367ffffffffffffffff1602179055506080820151816002015590505060095f8681526020019081526020015f2081908060018154018082558091505060019003905f5260205f20015f90919091909150558273ffffffffffffffffffffffffffffffffffffffff1685827f0dcf9cf0b0ef90d5acde712ce20c5e9389f622a1bc4c8f8d34cbecbdb3172f0887428760405161252e939291906131fd565b60405180910390a45050505050565b5f819050919050565b61254f8161253d565b82525050565b5f6020820190506125685f830184612546565b92915050565b5f5ffd5b5f5ffd5b5f73ffffffffffffffffffffffffffffffffffffffff82169050919050565b5f61259f82612576565b9050919050565b6125af81612595565b81146125b9575f5ffd5b50565b5f813590506125ca816125a6565b92915050565b6125d98161253d565b81146125e3575f5ffd5b50565b5f813590506125f4816125d0565b92915050565b5f5f604083850312156126105761260f61256e565b5b5f61261d858286016125bc565b925050602061262e858286016125e6565b9150509250929050565b5f6020828403121561264d5761264c61256e565b5b5f61265a848285016125e6565b91505092915050565b5f819050919050565b61267581612663565b82525050565b5f60208201905061268e5f83018461266c565b92915050565b61269d81612663565b81146126a7575f5ffd5b50565b5f813590506126b881612694565b92915050565b5f5ffd5b5f5ffd5b5f5ffd5b5f5f83601f8401126126df576126de6126be565b5b8235905067ffffffffffffffff8111156126fc576126fb6126c2565b5b602083019150836020820283011115612718576127176126c6565b5b9250929050565b5f5f5f5f606085870312156127375761273661256e565b5b5f612744878288016126aa565b9450506020612755878288016126aa565b935050604085013567ffffffffffffffff81111561277657612775612572565b5b612782878288016126ca565b925092505092959194509250565b5f8115159050919050565b6127a481612790565b82525050565b5f6020820190506127bd5f83018461279b565b92915050565b5f602082840312156127d8576127d761256e565b5b5f6127e5848285016126aa565b91505092915050565b7f4e487b71000000000000000000000000000000000000000000000000000000005f52602160045260245ffd5b6008811061282c5761282b6127ee565b5b50565b5f81905061283c8261281b565b919050565b5f61284b8261282f565b9050919050565b61285b81612841565b82525050565b61286a81612595565b82525050565b5f67ffffffffffffffff82169050919050565b61288c81612870565b82525050565b5f60a0820190506128a55f830188612546565b6128b26020830187612852565b6128bf6040830186612861565b6128cc6060830185612883565b6128d9608083018461266c565b9695505050505050565b5f81519050919050565b5f82825260208201905092915050565b8281835e5f83830152505050565b5f601f19601f8301169050919050565b5f612925826128e3565b61292f81856128ed565b935061293f8185602086016128fd565b6129488161290b565b840191505092915050565b5f6080820190508181035f83015261296b818761291b565b9050818103602083015261297f818661291b565b905061298e6040830185612861565b61299b606083018461279b565b95945050505050565b5f5f83601f8401126129b9576129b86126be565b5b8235905067ffffffffffffffff8111156129d6576129d56126c2565b5b6020830191508360018202830111156129f2576129f16126c6565b5b9250929050565b5f5f5f5f60408587031215612a1157612a1061256e565b5b5f85013567ffffffffffffffff811115612a2e57612a2d612572565b5b612a3a878288016129a4565b9450945050602085013567ffffffffffffffff811115612a5d57612a5c612572565b5b612a69878288016129a4565b925092505092959194509250565b5f5f60408385031215612a8d57612a8c61256e565b5b5f612a9a858286016125e6565b9250506020612aab858286016126aa565b9150509250929050565b5f602082019050612ac85f830184612861565b92915050565b5f60208284031215612ae357612ae261256e565b5b5f612af0848285016125bc565b91505092915050565b5f5f5f60408486031215612b1057612b0f61256e565b5b5f612b1d868287016125e6565b935050602084013567ffffffffffffffff811115612b3e57612b3d612572565b5b612b4a868287016129a4565b92509250509250925092565b60088110612b62575f5ffd5b50565b5f81359050612b7381612b56565b92915050565b5f5f5f60608486031215612b9057612b8f61256e565b5b5f612b9d868287016125e6565b9350506020612bae86828701612b65565b9250506040612bbf868287016126aa565b9150509250925092565b5f60c082019050612bdc5f830189612546565b612be96020830188612861565b612bf66040830187612861565b612c03606083018661266c565b612c10608083018561279b565b612c1d60a083018461279b565b979650505050505050565b5f5f60408385031215612c3e57612c3d61256e565b5b5f612c4b858286016125e6565b9250506020612c5c858286016125e6565b9150509250929050565b5f81519050919050565b5f82825260208201905092915050565b5f819050602082019050919050565b612c988161253d565b82525050565b5f612ca98383612c8f565b60208301905092915050565b5f602082019050919050565b5f612ccb82612c66565b612cd58185612c70565b9350612ce083612c80565b805f5b83811015612d10578151612cf78882612c9e565b9750612d0283612cb5565b925050600181019050612ce3565b5085935050505092915050565b5f6020820190508181035f830152612d358184612cc1565b905092915050565b7f4e487b71000000000000000000000000000000000000000000000000000000005f52602260045260245ffd5b5f6002820490506001821680612d8157607f821691505b602082108103612d9457612d93612d3d565b5b50919050565b7f4e487b71000000000000000000000000000000000000000000000000000000005f52601160045260245ffd5b5f612dd18261253d565b91507fffffffffffffffffffffffffffffffffffffffffffffffffffffffffffffffff8203612e0357612e02612d9a565b5b600182019050919050565b7f4e487b71000000000000000000000000000000000000000000000000000000005f52604160045260245ffd5b5f819050815f5260205f209050919050565b5f6020601f8301049050919050565b5f82821b905092915050565b5f60088302612e977fffffffffffffffffffffffffffffffffffffffffffffffffffffffffffffffff82612e5c565b612ea18683612e5c565b95508019841693508086168417925050509392505050565b5f819050919050565b5f612edc612ed7612ed28461253d565b612eb9565b61253d565b9050919050565b5f819050919050565b612ef583612ec2565b612f09612f0182612ee3565b848454612e68565b825550505050565b5f5f905090565b612f20612f11565b612f2b818484612eec565b505050565b5b81811015612f4e57612f435f82612f18565b600181019050612f31565b5050565b601f821115612f9357612f6481612e3b565b612f6d84612e4d565b81016020851015612f7c578190505b612f90612f8885612e4d565b830182612f30565b50505b505050565b5f82821c905092915050565b5f612fb35f1984600802612f98565b1980831691505092915050565b5f612fcb8383612fa4565b9150826002028217905092915050565b612fe4826128e3565b67ffffffffffffffff811115612ffd57612ffc612e0e565b5b6130078254612d6a565b613012828285612f52565b5f60209050601f831160018114613043575f8415613031578287015190505b61303b8582612fc0565b8655506130a2565b601f19841661305186612e3b565b5f5b8281101561307857848901518255600182019150602085019450602081019050613053565b868310156130955784890151613091601f891682612fa4565b8355505b6001600288020188555050505b505050505050565b828183375f83830152505050565b5f6130c383856128ed565b93506130d08385846130aa565b6130d98361290b565b840190509392505050565b5f6040820190508181035f8301526130fd8186886130b8565b905081810360208301526131128184866130b8565b905095945050505050565b5f81905092915050565b5f613132838561311d565b935061313f8385846130aa565b82840190509392505050565b5f613157828486613127565b91508190509392505050565b5f6020820190508181035f83015261317c8184866130b8565b90509392505050565b7f4e487b71000000000000000000000000000000000000000000000000000000005f52603260045260245ffd5b5f819050919050565b6131cc6131c782612663565b6131b2565b82525050565b5f6131dd82856131bb565b6020820191506131ed82846131bb565b6020820191508190509392505050565b5f6060820190506132105f830186612852565b61321d6020830185612883565b61322a604083018461266c565b94935050505056fea2646970667358221220b6d14ca3302c0c6300a3750d6a5fde59b220eebac5ee4f130af23598e752daa464736f6c634300081c0033",
  "linkReferences": {},
  "deployedLinkReferences": {},
  "immutableReferences": {},
  "inputSourceName": "project/contracts/TraceabilityMerkleRegistry.sol",
  "buildInfoId": "solc-0_8_28-c4dad2cf11ae8a918446a56587aff6c5d76b2282"
}