{
  "_format": "hh3-artifact-1",
  "contractName": "TraceabilityMerkleRegistry",
  "sourceName": "contracts/TraceabilityMerkleRegistry.sol",
  "abi": [
    {
      "inputs": [],
      "stateMutability": "nonpayable",
      "type": "constructor"
    },
    {
      "inputs": [],
      "name": "BatchAlreadyClosed",
      "type": "error"
    },
    {
      "inputs": [],
      "name": "BatchCodeAlreadyUsed",
      "type": "error"
    },
    {
      "inputs": [],
      "name": "InvalidBatch",
      "type": "error"
    },
    {
      "inputs": [],
      "name": "InvalidEventType",
      "type": "error"
    },
    {
      "inputs": [],
      "name": "InvalidProduct",
      "type": "error"
    },
    {
      "inputs": [],
      "name": "MerkleRootAlreadySet",
      "type": "error"
    },
    {
      "inputs": [],
      "name": "PausedContract",
      "type": "error"
    },
    {
      "inputs": [],
      "name": "Unauthorized",
      "type": "error"
    },
    {
      "inputs": [],
      "name": "ZeroAddress",
      "type": "error"
    },
    {
      "anonymous": false,
      "inputs": [
        {
          "indexed": true,
          "internalType": "uint256",
          "name": "batchId",
          "type": "uint256"
        },
        {
          "indexed": true,
          "internalType": "bytes32",
          "name": "batchCodeHash",
          "type": "bytes32"
        },
        {
          "indexed": false,
          "internalType": "string",
          "name": "batchCode",
          "type": "string"
        }
      ],
      "name": "BatchCodeBound",
      "type": "event"
    },
    {
      "anonymous": false,
      "inputs": [
        {
          "indexed": true,
          "internalType": "uint256",
          "name": "batchId",
          "type": "uint256"
        },
        {
          "indexed": true,
          "internalType": "uint256",
          "name": "productId",
          "type": "uint256"
        },
        {
          "indexed": true,
          "internalType": "address",
          "name": "creator",
          "type": "address"
        },
        {
          "indexed": false,
          "internalType": "bytes32",
          "name": "initialDataHash",
          "type": "bytes32"
        }
      ],
      "name": "BatchCreated",
      "type": "event"
    },
    {
      "anonymous": false,
      "inputs": [
        {
          "indexed": true,
          "internalType": "uint256",
          "name": "batchId",
          "type": "uint256"
        },
        {
          "indexed": true,
          "internalType": "bytes32",
          "name": "merkleRoot",
          "type": "bytes32"
        },
        {
          "indexed": true,
          "internalType": "address",
          "name": "committer",
          "type": "address"
        }
      ],
      "name": "BatchMerkleRootCommitted",
      "type": "event"
    },
    {
      "anonymous": false,
      "inputs": [
        {
          "indexed": true,
          "internalType": "address",
          "name": "previousOwner",
          "type": "address"
        },
        {
          "indexed": true,
          "internalType": "address",
          "name": "newOwner",
          "type": "address"
        }
      ],
      "name": "OwnershipTransferred",
      "type": "event"
    },
    {
      "anonymous": false,
      "inputs": [
        {
          "indexed": false,
          "internalType": "address",
          "name": "account",
          "type": "address"
        }
      ],
      "name": "Paused",
      "type": "event"
    },
    {
      "anonymous": false,
      "inputs": [
        {
          "indexed": true,
          "internalType": "uint256",
          "name": "productId",
          "type": "uint256"
        },
        {
          "indexed": true,
          "internalType": "address",
          "name": "owner",
          "type": "address"
        },
        {
          "indexed": false,
          "internalType": "string",
          "name": "name",
          "type": "string"
        },
        {
          "indexed": false,
          "internalType": "string",
          "name": "metadataURI",
          "type": "string"
        }
      ],
      "name": "ProductCreated",
      "type": "event"
    },
    {
      "anonymous": false,
      "inputs": [
        {
          "indexed": true,
          "internalType": "address",
          "name": "account",
          "type": "address"
        },
        {
          "indexed": false,
          "internalType": "uint256",
          "name": "roles",
          "type": "uint256"
        }
      ],
      "name": "RolesUpdated",
      "type": "event"
    },
    {
      "anonymous": false,
      "inputs": [
        {
          "indexed": true,
          "internalType": "uint256",
          "name": "eventId",
          "type": "uint256"
        },
        {
          "indexed": true,
          "internalType": "uint256",
          "name": "batchId",
          "type": "uint256"
        },
        {
          "indexed": false,
          "internalType": "enum TraceabilityMerkleRegistry.EventType",
          "name": "eventType",
          "type": "uint8"
        },
        {
          "indexed": true,
          "internalType": "address",
          "name": "actor",
          "type": "address"
        },
        {
          "indexed": false,
          "internalType": "uint64",
          "name": "timestamp",
          "type": "uint64"
        },
        {
          "indexed": false,
          "internalType": "bytes32",
          "name": "dataHash",
          "type": "bytes32"
        }
      ],
      "name": "TraceEventRecorded",
      "type": "event"
    },
    {
      "anonymous": false,
      "inputs": [
        {
          "indexed": false,
          "internalType": "address",
          "name": "account",
          "type": "address"
        }
      ],
      "name": "Unpaused",
      "type": "event"
    },
    {
      "inputs": [],
      "name": "ROLE_AUDITOR",
      "outputs": [
        {
          "internalType": "uint256",
          "name": "",
          "type": "uint256"
        }
      ],
      "stateMutability": "view",
      "type": "function"
    },
    {
      "inputs": [],
      "name": "ROLE_PROCESSOR",
      "outputs": [
        {
          "internalType": "uint256",
          "name": "",
          "type": "uint256"
        }
      ],
      "stateMutability": "view",
      "type": "function"
    },
    {
      "inputs": [],
      "name": "ROLE_PRODUCER",
      "outputs": [
        {
          "internalType": "uint256",
          "name": "",
          "type": "uint256"
        }
      ],
      "stateMutability": "view",
      "type": "function"
    },
    {
      "inputs": [],
      "name": "ROLE_RETAILER",
      "outputs": [
        {
          "internalType": "uint256",
          "name": "",
          "type": "uint256"
        }
      ],
      "stateMutability": "view",
      "type": "function"
    },
    {
      "inputs": [],
      "name": "ROLE_TRANSPORTER",
      "outputs": [
        {
          "internalType": "uint256",
          "name": "",
          "type": "uint256"
        }
      ],
      "stateMutability": "view",
      "type": "function"
    },
    {
      "inputs": [
        {
          "internalType": "bytes32",
          "name": "",
          "type": "bytes32"
        }
      ],
      "name": "batchCodeHashToBatchId",
      "outputs": [
        {
          "internalType": "uint256",
          "name": "",
          "type": "uint256"
        }
      ],
      "stateMutability": "view",
      "type": "function"
    },
    {
      "inputs": [
        {
          "internalType": "uint256",
          "name": "",
          "type": "uint256"
        },
        {
          "internalType": "uint256",
          "name": "",
          "type": "uint256"
        }
      ],
      "name": "batchEvents",
      "outputs": [
        {
          "internalType": "uint256",
          "name": "",
          "type": "uint256"
        }
      ],
      "stateMutability": "view",
      "type": "function"
    },
    {
      "inputs": [
        {
          "internalType": "uint256",
          "name": "",
          "type": "uint256"
        }
      ],
      "name": "batchMerkleRoot",
      "outputs": [
        {
          "internalType": "bytes32",
          "name": "",
          "type": "bytes32"
        }
      ],
      "stateMutability": "view",
      "type": "function"
    },
    {
      "inputs": [
        {
          "internalType": "uint256",
          "name": "",
          "type": "uint256"
        }
      ],
      "name": "batches",
      "outputs": [
        {
          "internalType": "uint256",
          "name": "productId",
          "type": "uint256"
        },
        {
          "internalType": "address",
          "name": "creator",
          "type": "address"
        },
        {
          "internalType": "address",
          "name": "currentOwner",
          "type": "address"
        },
        {
          "internalType": "bytes32",
          "name": "initialDataHash",
          "type": "bytes32"
        },
        {
          "internalType": "bool",
          "name": "exists",
          "type": "bool"
        },
        {
          "internalType": "bool",
          "name": "closed",
          "type": "bool"
        }
      ],
      "stateMutability": "view",
      "type": "function"
    },
    {
      "inputs": [
        {
          "internalType": "uint256",
          "name": "batchId",
          "type": "uint256"
        },
        {
          "internalType": "string",
          "name": "batchCode",
          "type": "string"
        }
      ],
      "name": "bindBatchCode",
      "outputs": [],
      "stateMutability": "nonpayable",
      "type": "function"
    },
    {
      "inputs": [
        {
          "internalType": "uint256",
          "name": "batchId",
          "type": "uint256"
        },
        {
          "internalType": "bytes32",
          "name": "merkleRoot",
          "type": "bytes32"
        }
      ],
      "name": "commitBatchMerkleRoot",
      "outputs": [],
      "stateMutability": "nonpayable",
      "type": "function"
    },
    {
      "inputs": [
        {
          "internalType": "uint256",
          "name": "productId",
          "type": "uint256"
        },
        {
          "internalType": "bytes32",
          "name": "initialDataHash",
          "type": "bytes32"
        }
      ],
      "name": "createBatch",
      "outputs": [
        {
          "internalType": "uint256",
          "name": "batchId",
          "type": "uint256"
        }
      ],
      "stateMutability": "nonpayable",
      "type": "function"
    },
    {
      "inputs": [
        {
          "internalType": "string",
          "name": "name",
          "type": "string"
        },
        {
          "internalType": "string",
          "name": "metadataURI",
          "type": "string"
        }
      ],
      "name": "createProduct",
      "outputs": [
        {
          "internalType": "uint256",
          "name": "productId",
          "type": "uint256"
        }
      ],
      "stateMutability": "nonpayable",
      "type": "function"
    },
    {
      "inputs": [
        {
          "internalType": "uint256",
          "name": "",
          "type": "uint256"
        }
      ],
      "name": "eventsById",
      "outputs": [
        {
          "internalType": "uint256",
          "name": "batchId",
          "type": "uint256"
        },
        {
          "internalType": "enum TraceabilityMerkleRegistry.EventType",
          "name": "eventType",
          "type": "uint8"
        },
        {
          "internalType": "address",
          "name": "actor",
          "type": "address"
        },
        {
          "internalType": "uint64",
          "name": "timestamp",
          "type": "uint64"
        },
        {
          "internalType": "bytes32",
          "name": "dataHash",
          "type": "bytes32"
        }
      ],
      "stateMutability": "view",
      "type": "function"
    },
    {
      "inputs": [
        {
          "internalType": "uint256",
          "name": "batchId",
          "type": "uint256"
        }
      ],
      "name": "getBatchEvents",
      "outputs": [
        {
          "internalType": "uint256[]",
          "name": "",
          "type": "uint256[]"
        }
      ],
      "stateMutability": "view",
      "type": "function"
    },
    {
      "inputs": [
        {
          "internalType": "address",
          "name": "account",
          "type": "address"
        },
        {
          "internalType": "uint256",
          "name": "role",
          "type": "uint256"
        }
      ],
      "name": "hasRole",
      "outputs": [
        {
          "internalType": "bool",
          "name": "",
          "type": "bool"
        }
      ],
      "stateMutability": "view",
      "type": "function"
    },
    {
      "inputs": [],
      "name": "nextBatchId",
      "outputs": [
        {
          "internalType": "uint256",
          "name": "",
          "type": "uint256"
        }
      ],
      "stateMutability": "view",
      "type": "function"
    },
    {
      "inputs": [],
      "name": "nextEventId",
      "outputs": [
        {
          "internalType": "uint256",
          "name": "",
          "type": "uint256"
        }
      ],
      "stateMutability": "view",
      "type": "function"
    },
    {
      "inputs": [],
      "name": "nextProductId",
      "outputs": [
        {
          "internalType": "uint256",
          "name": "",
          "type": "uint256"
        }
      ],
      "stateMutability": "view",
      "type": "function"
    },
    {
      "inputs": [],
      "name": "owner",
      "outputs": [
        {
          "internalType": "address",
          "name": "",
          "type": "address"
        }
      ],
      "stateMutability": "view",
      "type": "function"
    },
    {
      "inputs": [],
      "name": "pause",
      "outputs": [],
      "stateMutability": "nonpayable",
      "type": "function"
    },
    {
      "inputs": [],
      "name": "paused",
      "outputs": [
        {
          "internalType": "bool",
          "name": "",
          "type": "bool"
        }
      ],
      "stateMutability": "view",
      "type": "function"
    },
    {
      "inputs": [
        {
          "internalType": "uint256",
          "name": "",
          "type": "uint256"
        }
      ],
      "name": "products",
      "outputs": [
        {
          "internalType": "string",
          "name": "name",
          "type": "string"
        },
        {
          "internalType": "string",
          "name": "metadataURI",
          "type": "string"
        },
        {
          "internalType": "address",
          "name": "owner",
          "type": "address"
        },
        {
          "internalType": "bool",
          "name": "exists",
          "type": "bool"
        }
      ],
      "stateMutability": "view",
      "type": "function"
    },
    {
      "inputs": [
        {
          "internalType": "uint256",
          "name": "batchId",
          "type": "uint256"
        },
        {
          "internalType": "enum TraceabilityMerkleRegistry.EventType",
          "name": "eventType",
          "type": "uint8"
        },
        {
          "internalType": "bytes32",
          "name": "dataHash",
          "type": "bytes32"
        }
      ],
      "name": "recordTraceEvent",
      "outputs": [],
      "stateMutability": "nonpayable",
      "type": "function"
    },
    {
      "inputs": [
        {
          "internalType": "address",
          "name": "",
          "type": "address"
        }
      ],
      "name": "roles",
      "outputs": [
        {
          "internalType": "uint256",
          "name": "",
          "type": "uint256"
        }
      ],
      "stateMutability": "view",
      "type": "function"
    },
    {
      "inputs": [
        {
          "internalType": "address",
          "name": "account",
          "type": "address"
        },
        {
          "internalType": "uint256",
          "name": "newRoles",
          "type": "uint256"
        }
      ],
      "name": "setRoles",
      "outputs": [],
      "stateMutability": "nonpayable",
      "type": "function"
    },
    {
      "inputs": [
        {
          "internalType": "address",
          "name": "newOwner",
          "type": "address"
        }
      ],
      "name": "transferOwnership",
      "outputs": [],
      "stateMutability": "nonpayable",
      "type": "function"
    },
    {
      "inputs": [],
      "name": "unpause",
      "outputs": [],
      "stateMutability": "nonpayable",
      "type": "function"
    },
    {
      "inputs": [
        {
          "internalType": "bytes32",
          "name": "leaf",
          "type": "bytes32"
        },
        {
          "internalType": "bytes32",
          "name": "root",
          "type": "bytes32"
        },
        {
          "internalType": "bytes32[]",
          "name": "proof",
          "type": "bytes32[]"
        }
      ],
      "name": "verifyWithRoot",
      "outputs": [
        {
          "internalType": "bool",
          "name": "",
          "type": "bool"
        }
      ],
      "stateMutability": "pure",
      "type": "function"
    }
  ],
  "bytecode": "0x6080604052600160035560016004556001600555348015601d575f5ffd5b50335f5f6101000a81548173ffffffffffffffffffffffffffffffffffffffff021916908373ffffffffffffffffffffffffffffffffffffffff1602179055503373ffffffffffffffffffffffffffffffffffffffff165f73ffffffffffffffffffffffffffffffffffffffff167f8be0079c531659141344cd1fd0a4f28419497f9722a3daafe3b4186f6b6457e060405160405180910390a3613545806100c45f395ff3fe608060405234801561000f575f5ffd5b50600436106101cd575f3560e01c806387592bce11610102578063b0a4542e116100a0578063c4d6b7d51161006f578063c4d6b7d51461053d578063de75348c1461056d578063ecd406601461059d578063f2fde38b146105cd576101cd565b8063b0a4542e146104b0578063b32c4d8d146104cc578063b43857e814610501578063bc7b8b241461051f576101cd565b806399374642116100dc57806399374642146104285780639a7a0238146104585780639f9d903a14610474578063a13fbeed14610492576101cd565b806387592bce146103be5780638ace69cf146103ee5780638da5cb5b1461040a576101cd565b80634de91a631161016f5780636d7524ee116101495780636d7524ee1461032f5780637acc0b20146103635780638456cb59146103965780638462a7f8146103a0576101cd565b80634de91a63146102c35780635c975abb146102e15780635c97f4a2146102ff576101cd565b80633f029aaf116101ab5780633f029aaf1461023b5780633f4ba83a14610259578063483fc3bb146102635780634cd6857814610293576101cd565b806321a6f8aa146101d157806333a3ad8f146101ef578063391224c21461020b575b5f5ffd5b6101d96105e9565b6040516101e69190612832565b60405180910390f35b610209600480360381019061020491906128d7565b6105ee565b005b61022560048036038101906102209190612915565b61076c565b6040516102329190612958565b60405180910390f35b610243610781565b6040516102509190612832565b60405180910390f35b610261610786565b005b61027d600480360381019061027891906129fc565b61085d565b60405161028a9190612a87565b60405180910390f35b6102ad60048036038101906102a89190612aa0565b610875565b6040516102ba9190612832565b60405180910390f35b6102cb61088a565b6040516102d89190612832565b60405180910390f35b6102e9610890565b6040516102f69190612a87565b60405180910390f35b610319600480360381019061031491906128d7565b6108a2565b6040516103269190612a87565b60405180910390f35b61034960048036038101906103449190612915565b6108ee565b60405161035a959493929190612b6f565b60405180910390f35b61037d60048036038101906103789190612915565b610960565b60405161038d9493929190612c30565b60405180910390f35b61039e610ac4565b005b6103a8610b9c565b6040516103b59190612832565b60405180910390f35b6103d860048036038101906103d39190612cd6565b610ba2565b6040516103e59190612832565b60405180910390f35b61040860048036038101906104039190612d54565b610e96565b005b6104126110f2565b60405161041f9190612d92565b60405180910390f35b610442600480360381019061043d9190612dab565b611116565b60405161044f9190612832565b60405180910390f35b610472600480360381019061046d9190612dd6565b61112b565b005b61047c611421565b6040516104899190612832565b60405180910390f35b61049a611427565b6040516104a79190612832565b60405180910390f35b6104ca60048036038101906104c59190612e56565b61142c565b005b6104e660048036038101906104e19190612915565b6116aa565b6040516104f896959493929190612ea6565b60405180910390f35b610509611739565b6040516105169190612832565b60405180910390f35b61052761173e565b6040516105349190612832565b60405180910390f35b61055760048036038101906105529190612d54565b611743565b6040516105649190612832565b60405180910390f35b61058760048036038101906105829190612f05565b611c11565b6040516105949190612832565b60405180910390f35b6105b760048036038101906105b29190612915565b611c3c565b6040516105c49190612ffa565b60405180910390f35b6105e760048036038101906105e29190612dab565b611ca3565b005b600281565b5f5f9054906101000a900473ffffffffffffffffffffffffffffffffffffffff1673ffffffffffffffffffffffffffffffffffffffff163373ffffffffffffffffffffffffffffffffffffffff1614610673576040517f82b4290000000000000000000000000000000000000000000000000000000000815260040160405180910390fd5b5f73ffffffffffffffffffffffffffffffffffffffff168273ffffffffffffffffffffffffffffffffffffffff16036106d8576040517fd92e233d00000000000000000000000000000000000000000000000000000000815260040160405180910390fd5b8060015f8473ffffffffffffffffffffffffffffffffffffffff1673ffffffffffffffffffffffffffffffffffffffff1681526020019081526020015f20819055508173ffffffffffffffffffffffffffffffffffffffff167f715ad5ce61fc9595c7b415289d59cf203f23a94fa06f04af7e489a0a76e1fe26826040516107609190612832565b60405180910390a25050565b600b602052805f5260405f205f915090505481565b601081565b5f5f9054906101000a900473ffffffffffffffffffffffffffffffffffffffff1673ffffffffffffffffffffffffffffffffffffffff163373ffffffffffffffffffffffffffffffffffffffff161461080b576040517f82b4290000000000000000000000000000000000000000000000000000000000815260040160405180910390fd5b5f60025f6101000a81548160ff0219169083151502179055507f5db9ee0a495bf2e6ff9c91a7834c1ba4fdd244a5e8aa4e537bd38aeae4b073aa336040516108539190612d92565b60405180910390a1565b5f8361086a868585611e49565b149050949350505050565b600a602052805f5260405f205f915090505481565b60035481565b60025f9054906101000a900460ff1681565b5f5f8260015f8673ffffffffffffffffffffffffffffffffffffffff1673ffffffffffffffffffffffffffffffffffffffff1681526020019081526020015f2054161415905092915050565b6008602052805f5260405f205f91509050805f015490806001015f9054906101000a900460ff16908060010160019054906101000a900473ffffffffffffffffffffffffffffffffffffffff16908060010160159054906101000a900467ffffffffffffffff16908060020154905085565b6006602052805f5260405f205f91509050805f01805461097f90613047565b80601f01602080910402602001604051908101604052809291908181526020018280546109ab90613047565b80156109f65780601f106109cd576101008083540402835291602001916109f6565b820191905f5260205f20905b8154815290600101906020018083116109d957829003601f168201915b505050505090806001018054610a0b90613047565b80601f0160208091040260200160405190810160405280929190818152602001828054610a3790613047565b8015610a825780601f10610a5957610100808354040283529160200191610a82565b820191905f5260205f20905b815481529060010190602001808311610a6557829003601f168201915b505050505090806002015f9054906101000a900473ffffffffffffffffffffffffffffffffffffffff16908060020160149054906101000a900460ff16905084565b5f5f9054906101000a900473ffffffffffffffffffffffffffffffffffffffff1673ffffffffffffffffffffffffffffffffffffffff163373ffffffffffffffffffffffffffffffffffffffff1614610b49576040517f82b4290000000000000000000000000000000000000000000000000000000000815260040160405180910390fd5b600160025f6101000a81548160ff0219169083151502179055507f62e78cea01bee320cd4e420270b5ea74000d11b0c9f74754ebdbfc544b05a25833604051610b929190612d92565b60405180910390a1565b60045481565b5f60025f9054906101000a900460ff1615610be9576040517ff322ab2600000000000000000000000000000000000000000000000000000000815260040160405180910390fd5b60015f8160015f3373ffffffffffffffffffffffffffffffffffffffff1673ffffffffffffffffffffffffffffffffffffffff1681526020019081526020015f205416148015610c8557505f5f9054906101000a900473ffffffffffffffffffffffffffffffffffffffff1673ffffffffffffffffffffffffffffffffffffffff163373ffffffffffffffffffffffffffffffffffffffff1614155b15610cbc576040517f82b4290000000000000000000000000000000000000000000000000000000000815260040160405180910390fd5b60035f815480929190610cce906130a4565b919050559150604051806080016040528087878080601f0160208091040260200160405190810160405280939291908181526020018383808284375f81840152601f19601f82011690508083019250505050505050815260200185858080601f0160208091040260200160405190810160405280939291908181526020018383808284375f81840152601f19601f8201169050808301925050505050505081526020013373ffffffffffffffffffffffffffffffffffffffff1681526020016001151581525060065f8481526020019081526020015f205f820151815f019081610db891906132b8565b506020820151816001019081610dce91906132b8565b506040820151816002015f6101000a81548173ffffffffffffffffffffffffffffffffffffffff021916908373ffffffffffffffffffffffffffffffffffffffff16021790555060608201518160020160146101000a81548160ff0219169083151502179055509050503373ffffffffffffffffffffffffffffffffffffffff16827f5b6548625353cfbb6de6bbb313a0b1cf8efbb45f2874f24c9d352590e3e366ff88888888604051610e8594939291906133c1565b60405180910390a350949350505050565b60025f9054906101000a900460ff1615610edc576040517ff322ab2600000000000000000000000000000000000000000000000000000000815260040160405180910390fd5b8160075f8281526020019081526020015f206004015f9054906101000a900460ff16610f34576040517f33b094a100000000000000000000000000000000000000000000000000000000815260040160405180910390fd5b5f5f1b8203610f6f576040517f2e8c904e00000000000000000000000000000000000000000000000000000000815260040160405180910390fd5b5f5f1b600b5f8581526020019081526020015f205414610fbb576040517f6006d96400000000000000000000000000000000000000000000000000000000815260040160405180910390fd5b5f60015f3373ffffffffffffffffffffffffffffffffffffffff1673ffffffffffffffffffffffffffffffffffffffff1681526020019081526020015f205490505f5f9054906101000a900473ffffffffffffffffffffffffffffffffffffffff1673ffffffffffffffffffffffffffffffffffffffff163373ffffffffffffffffffffffffffffffffffffffff161415801561105a57505f60108216145b15611091576040517f82b4290000000000000000000000000000000000000000000000000000000000815260040160405180910390fd5b82600b5f8681526020019081526020015f20819055503373ffffffffffffffffffffffffffffffffffffffff1683857f6cc668dfcfb73b1f297b65a8bd52a62f4c634e392247b9d7c35b1e4b590e577f60405160405180910390a450505050565b5f5f9054906101000a900473ffffffffffffffffffffffffffffffffffffffff1681565b6001602052805f5260405f205f915090505481565b60025f9054906101000a900460ff1615611171576040517ff322ab2600000000000000000000000000000000000000000000000000000000815260040160405180910390fd5b8260075f8281526020019081526020015f206004015f9054906101000a900460ff166111c9576040517f33b094a100000000000000000000000000000000000000000000000000000000815260040160405180910390fd5b5f60075f8681526020019081526020015f209050806002015f9054906101000a900473ffffffffffffffffffffffffffffffffffffffff1673ffffffffffffffffffffffffffffffffffffffff163373ffffffffffffffffffffffffffffffffffffffff161415801561128b5750806001015f9054906101000a900473ffffffffffffffffffffffffffffffffffffffff1673ffffffffffffffffffffffffffffffffffffffff163373ffffffffffffffffffffffffffffffffffffffff1614155b80156112e357505f5f9054906101000a900473ffffffffffffffffffffffffffffffffffffffff1673ffffffffffffffffffffffffffffffffffffffff163373ffffffffffffffffffffffffffffffffffffffff1614155b1561131a576040517f82b4290000000000000000000000000000000000000000000000000000000000815260040160405180910390fd5b8060040160019054906101000a900460ff1615611363576040517f6bdcb88a00000000000000000000000000000000000000000000000000000000815260040160405180910390fd5b5f8484604051611374929190613428565b604051809103902090505f600a5f8381526020019081526020015f2054146113c8576040517fe092299d00000000000000000000000000000000000000000000000000000000815260040160405180910390fd5b85600a5f8381526020019081526020015f208190555080867f506c82a4b9513c193f67b1622dbdf0b23390c1ad17a36d51e1db7b4410c742958787604051611411929190613440565b60405180910390a3505050505050565b60055481565b600181565b60025f9054906101000a900460ff1615611472576040517ff322ab2600000000000000000000000000000000000000000000000000000000815260040160405180910390fd5b8260075f8281526020019081526020015f206004015f9054906101000a900460ff166114ca576040517f33b094a100000000000000000000000000000000000000000000000000000000815260040160405180910390fd5b5f60075f8681526020019081526020015f2090508060040160019054906101000a900460ff1615611527576040517f6bdcb88a00000000000000000000000000000000000000000000000000000000815260040160405180910390fd5b6115318433611efc565b61153c85853361231a565b600360078111156115505761154f612acb565b5b84600781111561156357611562612acb565b5b148061159357506004600781111561157e5761157d612acb565b5b84600781111561159157611590612acb565b5b145b156115db5733816002015f6101000a81548173ffffffffffffffffffffffffffffffffffffffff021916908373ffffffffffffffffffffffffffffffffffffffff1602179055505b600560078111156115ef576115ee612acb565b5b84600781111561160257611601612acb565b5b148061163257506006600781111561161d5761161c612acb565b5b8460078111156116305761162f612acb565b5b145b156116975733816002015f6101000a81548173ffffffffffffffffffffffffffffffffffffffff021916908373ffffffffffffffffffffffffffffffffffffffff16021790555060018160040160016101000a81548160ff0219169083151502179055505b6116a3858533866125e9565b5050505050565b6007602052805f5260405f205f91509050805f015490806001015f9054906101000a900473ffffffffffffffffffffffffffffffffffffffff1690806002015f9054906101000a900473ffffffffffffffffffffffffffffffffffffffff1690806003015490806004015f9054906101000a900460ff16908060040160019054906101000a900460ff16905086565b600881565b600481565b5f60025f9054906101000a900460ff161561178a576040517ff322ab2600000000000000000000000000000000000000000000000000000000815260040160405180910390fd5b60015f8160015f3373ffffffffffffffffffffffffffffffffffffffff1673ffffffffffffffffffffffffffffffffffffffff1681526020019081526020015f20541614801561182657505f5f9054906101000a900473ffffffffffffffffffffffffffffffffffffffff1673ffffffffffffffffffffffffffffffffffffffff163373ffffffffffffffffffffffffffffffffffffffff1614155b1561185d576040517f82b4290000000000000000000000000000000000000000000000000000000000815260040160405180910390fd5b5f60065f8681526020019081526020015f206040518060800160405290815f8201805461188990613047565b80601f01602080910402602001604051908101604052809291908181526020018280546118b590613047565b80156119005780601f106118d757610100808354040283529160200191611900565b820191905f5260205f20905b8154815290600101906020018083116118e357829003601f168201915b5050505050815260200160018201805461191990613047565b80601f016020809104026020016040519081016040528092919081815260200182805461194590613047565b80156119905780601f1061196757610100808354040283529160200191611990565b820191905f5260205f20905b81548152906001019060200180831161197357829003601f168201915b50505050508152602001600282015f9054906101000a900473ffffffffffffffffffffffffffffffffffffffff1673ffffffffffffffffffffffffffffffffffffffff1673ffffffffffffffffffffffffffffffffffffffff1681526020016002820160149054906101000a900460ff16151515158152505090508060600151611a46576040517fa661c0e700000000000000000000000000000000000000000000000000000000815260040160405180910390fd5b60045f815480929190611a58906130a4565b9190505592506040518060c001604052808681526020013373ffffffffffffffffffffffffffffffffffffffff1681526020013373ffffffffffffffffffffffffffffffffffffffff1681526020018581526020016001151581526020015f151581525060075f8581526020019081526020015f205f820151815f01556020820151816001015f6101000a81548173ffffffffffffffffffffffffffffffffffffffff021916908373ffffffffffffffffffffffffffffffffffffffff1602179055506040820151816002015f6101000a81548173ffffffffffffffffffffffffffffffffffffffff021916908373ffffffffffffffffffffffffffffffffffffffff160217905550606082015181600301556080820151816004015f6101000a81548160ff02191690831515021790555060a08201518160040160016101000a81548160ff021916908315150217905550905050611bb9835f33876125e9565b3373ffffffffffffffffffffffffffffffffffffffff1685847fb8e4c77c5f3171f096fd7e3977a2eebf1c3eefe6547f83f12fe70bf3361daa7d87604051611c019190612958565b60405180910390a4505092915050565b6009602052815f5260405f208181548110611c2a575f80fd5b905f5260205f20015f91509150505481565b606060095f8381526020019081526020015f20805480602002602001604051908101604052809291908181526020018280548015611c9757602002820191905f5260205f20905b815481526020019060010190808311611c83575b50505050509050919050565b5f5f9054906101000a900473ffffffffffffffffffffffffffffffffffffffff1673ffffffffffffffffffffffffffffffffffffffff163373ffffffffffffffffffffffffffffffffffffffff1614611d28576040517f82b4290000000000000000000000000000000000000000000000000000000000815260040160405180910390fd5b5f73ffffffffffffffffffffffffffffffffffffffff168173ffffffffffffffffffffffffffffffffffffffff1603611d8d576040517fd92e233d00000000000000000000000000000000000000000000000000000000815260040160405180910390fd5b8073ffffffffffffffffffffffffffffffffffffffff165f5f9054906101000a900473ffffffffffffffffffffffffffffffffffffffff1673ffffffffffffffffffffffffffffffffffffffff167f8be0079c531659141344cd1fd0a4f28419497f9722a3daafe3b4186f6b6457e060405160405180910390a3805f5f6101000a81548173ffffffffffffffffffffffffffffffffffffffff021916908373ffffffffffffffffffffffffffffffffffffffff16021790555050565b5f5f8490505f8484905090505f5f90505b81811015611eef575f868683818110611e7657611e75613462565b5b90506020020135905080841015611eb7578381604051602001611e9a9291906134af565b604051602081830303815290604052805190602001209350611ee3565b8084604051602001611eca9291906134af565b6040516020818303038152906040528051906020012093505b81600101915050611e5a565b5081925050509392505050565b5f60015f8373ffffffffffffffffffffffffffffffffffffffff1673ffffffffffffffffffffffffffffffffffffffff1681526020019081526020015f205490505f5f9054906101000a900473ffffffffffffffffffffffffffffffffffffffff1673ffffffffffffffffffffffffffffffffffffffff168273ffffffffffffffffffffffffffffffffffffffff1603611f965750612316565b5f6007811115611fa957611fa8612acb565b5b836007811115611fbc57611fbb612acb565b5b03612002575f6001821603611ffd576040517f82b4290000000000000000000000000000000000000000000000000000000000815260040160405180910390fd5b612314565b6001600781111561201657612015612acb565b5b83600781111561202957612028612acb565b5b03612072575f600260011782160361206d576040517f82b4290000000000000000000000000000000000000000000000000000000000815260040160405180910390fd5b612313565b6002600781111561208657612085612acb565b5b83600781111561209957612098612acb565b5b036120e5575f60046002600117178216036120e0576040517f82b4290000000000000000000000000000000000000000000000000000000000815260040160405180910390fd5b612312565b600360078111156120f9576120f8612acb565b5b83600781111561210c5761210b612acb565b5b03612158575f6008600260041717821603612153576040517f82b4290000000000000000000000000000000000000000000000000000000000815260040160405180910390fd5b612311565b6004600781111561216c5761216b612acb565b5b83600781111561217f5761217e612acb565b5b036121c8575f60026008178216036121c3576040517f82b4290000000000000000000000000000000000000000000000000000000000815260040160405180910390fd5b612310565b600560078111156121dc576121db612acb565b5b8360078111156121ef576121ee612acb565b5b03612235575f6008821603612230576040517f82b4290000000000000000000000000000000000000000000000000000000000815260040160405180910390fd5b61230f565b6006600781111561224957612248612acb565b5b83600781111561225c5761225b612acb565b5b036122a8575f60106008600117178216036122a3576040517f82b4290000000000000000000000000000000000000000000000000000000000815260040160405180910390fd5b61230e565b6007808111156122bb576122ba612acb565b5b8360078111156122ce576122cd612acb565b5b0361230d575f810361230c576040517f82b4290000000000000000000000000000000000000000000000000000000000815260040160405180910390fd5b5b5b5b5b5b5b5b5b505b5050565b5f60075f8581526020019081526020015f2090506003600781111561234257612341612acb565b5b83600781111561235557612354612acb565b5b036123e857806002015f9054906101000a900473ffffffffffffffffffffffffffffffffffffffff1673ffffffffffffffffffffffffffffffffffffffff168273ffffffffffffffffffffffffffffffffffffffff16036123e2576040517f82b4290000000000000000000000000000000000000000000000000000000000815260040160405180910390fd5b506125e4565b600160078111156123fc576123fb612acb565b5b83600781111561240f5761240e612acb565b5b148061243f57506002600781111561242a57612429612acb565b5b83600781111561243d5761243c612acb565b5b145b8061246e57506004600781111561245957612458612acb565b5b83600781111561246c5761246b612acb565b5b145b8061249d57506005600781111561248857612487612acb565b5b83600781111561249b5761249a612acb565b5b145b806124cc5750600660078111156124b7576124b6612acb565b5b8360078111156124ca576124c9612acb565b5b145b806124fa57506007808111156124e5576124e4612acb565b5b8360078111156124f8576124f7612acb565b5b145b156125e257806002015f9054906101000a900473ffffffffffffffffffffffffffffffffffffffff1673ffffffffffffffffffffffffffffffffffffffff168273ffffffffffffffffffffffffffffffffffffffff16141580156125aa57505f5f9054906101000a900473ffffffffffffffffffffffffffffffffffffffff1673ffffffffffffffffffffffffffffffffffffffff168273ffffffffffffffffffffffffffffffffffffffff1614155b156125e1576040517f82b4290000000000000000000000000000000000000000000000000000000000815260040160405180910390fd5b5b505b505050565b6007808111156125fc576125fb612acb565b5b60ff1683600781111561261257612611612acb565b5b60ff16111561264d576040517f2e8c904e00000000000000000000000000000000000000000000000000000000815260040160405180910390fd5b5f60055f815480929190612660906130a4565b9190505590506040518060a0016040528086815260200185600781111561268a57612689612acb565b5b81526020018473ffffffffffffffffffffffffffffffffffffffff1681526020014267ffffffffffffffff1681526020018381525060085f8381526020019081526020015f205f820151815f01556020820151816001015f6101000a81548160ff0219169083600781111561270257612701612acb565b5b021790555060408201518160010160016101000a81548173ffffffffffffffffffffffffffffffffffffffff021916908373ffffffffffffffffffffffffffffffffffffffff16021790555060608201518160010160156101000a81548167ffffffffffffffff021916908367ffffffffffffffff1602179055506080820151816002015590505060095f8681526020019081526020015f2081908060018154018082558091505060019003905f5260205f20015f90919091909150558273ffffffffffffffffffffffffffffffffffffffff1685827f0dcf9cf0b0ef90d5acde712ce20c5e9389f622a1bc4c8f8d34cbecbdb3172f0887428760405161280b939291906134da565b60405180910390a45050505050565b5f819050919050565b61282c8161281a565b82525050565b5f6020820190506128455f830184612823565b92915050565b5f5ffd5b5f5ffd5b5f73ffffffffffffffffffffffffffffffffffffffff82169050919050565b5f61287c82612853565b9050919050565b61288c81612872565b8114612896575f5ffd5b50565b5f813590506128a781612883565b92915050565b6128b68161281a565b81146128c0575f5ffd5b50565b5f813590506128d1816128ad565b92915050565b5f5f604083850312156128ed576128ec61284b565b5b5f6128fa85828601612899565b925050602061290b858286016128c3565b9150509250929050565b5f6020828403121561292a5761292961284b565b5b5f612937848285016128c3565b91505092915050565b5f819050919050565b61295281612940565b82525050565b5f60208201905061296b5f830184612949565b92915050565b61297a81612940565b8114612984575f5ffd5b50565b5f8135905061299581612971565b92915050565b5f5ffd5b5f5ffd5b5f5ffd5b5f5f83601f8401126129bc576129bb61299b565b5b8235905067ffffffffffffffff8111156129d9576129d861299f565b5b6020830191508360208202830111156129f5576129f46129a3565b5b9250929050565b5f5f5f5f60608587031215612a1457612a1361284b565b5b5f612a2187828801612987565b9450506020612a3287828801612987565b935050604085013567ffffffffffffffff811115612a5357612a5261284f565b5b612a5f878288016129a7565b925092505092959194509250565b5f8115159050919050565b612a8181612a6d565b82525050565b5f602082019050612a9a5f830184612a78565b92915050565b5f60208284031215612ab557612ab461284b565b5b5f612ac284828501612987565b91505092915050565b7f4e487b71000000000000000000000000000000000000000000000000000000005f52602160045260245ffd5b60088110612b0957612b08612acb565b5b50565b5f819050612b1982612af8565b919050565b5f612b2882612b0c565b9050919050565b612b3881612b1e565b82525050565b612b4781612872565b82525050565b5f67ffffffffffffffff82169050919050565b612b6981612b4d565b82525050565b5f60a082019050612b825f830188612823565b612b8f6020830187612b2f565b612b9c6040830186612b3e565b612ba96060830185612b60565b612bb66080830184612949565b9695505050505050565b5f81519050919050565b5f82825260208201905092915050565b8281835e5f83830152505050565b5f601f19601f8301169050919050565b5f612c0282612bc0565b612c0c8185612bca565b9350612c1c818560208601612bda565b612c2581612be8565b840191505092915050565b5f6080820190508181035f830152612c488187612bf8565b90508181036020830152612c5c8186612bf8565b9050612c6b6040830185612b3e565b612c786060830184612a78565b95945050505050565b5f5f83601f840112612c9657612c9561299b565b5b8235905067ffffffffffffffff811115612cb357612cb261299f565b5b602083019150836001820283011115612ccf57612cce6129a3565b5b9250929050565b5f5f5f5f60408587031215612cee57612ced61284b565b5b5f85013567ffffffffffffffff811115612d0b57612d0a61284f565b5b612d1787828801612c81565b9450945050602085013567ffffffffffffffff811115612d3a57612d3961284f565b5b612d4687828801612c81565b925092505092959194509250565b5f5f60408385031215612d6a57612d6961284b565b5b5f612d77858286016128c3565b9250506020612d8885828601612987565b9150509250929050565b5f602082019050612da55f830184612b3e565b92915050565b5f60208284031215612dc057612dbf61284b565b5b5f612dcd84828501612899565b91505092915050565b5f5f5f60408486031215612ded57612dec61284b565b5b5f612dfa868287016128c3565b935050602084013567ffffffffffffffff811115612e1b57612e1a61284f565b5b612e2786828701612c81565b92509250509250925092565b60088110612e3f575f5ffd5b50565b5f81359050612e5081612e33565b92915050565b5f5f5f60608486031215612e6d57612e6c61284b565b5b5f612e7a868287016128c3565b9350506020612e8b86828701612e42565b9250506040612e9c86828701612987565b9150509250925092565b5f60c082019050612eb95f830189612823565b612ec66020830188612b3e565b612ed36040830187612b3e565b612ee06060830186612949565b612eed6080830185612a78565b612efa60a0830184612a78565b979650505050505050565b5f5f60408385031215612f1b57612f1a61284b565b5b5f612f28858286016128c3565b9250506020612f39858286016128c3565b9150509250929050565b5f81519050919050565b5f82825260208201905092915050565b5f819050602082019050919050565b612f758161281a565b82525050565b5f612f868383612f6c565b60208301905092915050565b5f602082019050919050565b5f612fa882612f43565b612fb28185612f4d565b9350612fbd83612f5d565b805f5b83811015612fed578151612fd48882612f7b565b9750612fdf83612f92565b925050600181019050612fc0565b5085935050505092915050565b5f6020820190508181035f8301526130128184612f9e565b905092915050565b7f4e487b71000000000000000000000000000000000000000000000000000000005f52602260045260245ffd5b5f600282049050600182168061305e57607f821691505b6020821081036130715761307061301a565b5b50919050565b7f4e487b71000000000000000000000000000000000000000000000000000000005f52601160045260245ffd5b5f6130ae8261281a565b91507fffffffffffffffffffffffffffffffffffffffffffffffffffffffffffffffff82036130e0576130df613077565b5b600182019050919050565b7f4e487b71000000000000000000000000000000000000000000000000000000005f52604160045260245ffd5b5f819050815f5260205f209050919050565b5f6020601f8301049050919050565b5f82821b905092915050565b5f600883026131747fffffffffffffffffffffffffffffffffffffffffffffffffffffffffffffffff82613139565b61317e8683613139565b95508019841693508086168417925050509392505050565b5f819050919050565b5f6131b96131b46131af8461281a565b613196565b61281a565b9050919050565b5f819050919050565b6131d28361319f565b6131e66131de826131c0565b848454613145565b825550505050565b5f5f905090565b6131fd6131ee565b6132088184846131c9565b505050565b5b8181101561322b576132205f826131f5565b60018101905061320e565b5050565b601f8211156132705761324181613118565b61324a8461312a565b81016020851015613259578190505b61326d6132658561312a565b83018261320d565b50505b505050565b5f82821c905092915050565b5f6132905f1984600802613275565b1980831691505092915050565b5f6132a88383613281565b9150826002028217905092915050565b6132c182612bc0565b67ffffffffffffffff8111156132da576132d96130eb565b5b6132e48254613047565b6132ef82828561322f565b5f60209050601f831160018114613320575f841561330e578287015190505b613318858261329d565b86555061337f565b601f19841661332e86613118565b5f5b8281101561335557848901518255600182019150602085019450602081019050613330565b86831015613372578489015161336e601f891682613281565b8355505b6001600288020188555050505b505050505050565b828183375f83830152505050565b5f6133a08385612bca565b93506133ad838584613387565b6133b683612be8565b840190509392505050565b5f6040820190508181035f8301526133da818688613395565b905081810360208301526133ef818486613395565b905095945050505050565b5f81905092915050565b5f61340f83856133fa565b935061341c838584613387565b82840190509392505050565b5f613434828486613404565b91508190509392505050565b5f6020820190508181035f830152613459818486613395565b90509392505050565b7f4e487b71000000000000000000000000000000000000000000000000000000005f52603260045260245ffd5b5f819050919050565b6134a96134a482612940565b61348f565b82525050565b5f6134ba8285613498565b6020820191506134ca8284613498565b6020820191508190509392505050565b5f6060820190506134ed5f830186612b2f565b6134fa6020830185612b60565b6135076040830184612949565b94935050505056fea2646970667358221220b7ffc2f2708cb8c37469b516913439ee4cf372dcaa898e59048670127fe27aef64736f6c634300081c0033",
  "linkReferences": {},
  "deployedLinkReferences": {},
  "immutableReferences": {},
  "inputSourceName": "project/contracts/TraceabilityMerkleRegistry.sol",
  "buildInfoId": "solc-0_8_28-309cecfac111f0d6a88243e3d96f4bc745c0e4c3"
}