{
  "_format": "hh3-artifact-1",
  "contractName": "TraceabilityMerkleRegistry",
  "sourceName": "contracts/TraceabilityMerkleRegistry.sol",
  "abi": [
    {
      "inputs": [],
      "stateMutability": "nonpayable",
      "type": "constructor"
    },
    {
      "inputs": [],
      "name": "BatchAlreadyClosed",
      "type": "error"
    },
    {
      "inputs": [],
      "name": "BatchCodeAlreadyUsed",
      "type": "error"
    },
    {
      "inputs": [],
      "name": "InvalidBatch",
      "type": "error"
    },
    {
      "inputs": [],
      "name": "InvalidEventType",
      "type": "error"
    },
    {
      "inputs": [],
      "name": "InvalidProduct",
      "type": "error"
    },
    {
      "inputs": [],
      "name": "MerkleRootAlreadySet",
      "type": "error"
    },
    {
      "inputs": [],
      "name": "PausedContract",
      "type": "error"
    },
    {
      "inputs": [],
      "name": "Unauthorized",
      "type": "error"
    },
    {
      "inputs": [],
      "name": "ZeroAddress",
      "type": "error"
    },
    {
      "anonymous": false,
      "inputs": [
        {
          "indexed": true,
          "internalType": "uint256",
          "name": "batchId",
          "type": "uint256"
        },
        {
          "indexed": true,
          "internalType": "bytes32",
          "name": "batchCodeHash",
          "type": "bytes32"
        },
        {
          "indexed": false,
          "internalType": "string",
          "name": "batchCode",
          "type": "string"
        }
      ],
      "name": "BatchCodeBound",
      "type": "event"
    },
    {
      "anonymous": false,
      "inputs": [
        {
          "indexed": true,
          "internalType": "uint256",
          "name": "batchId",
          "type": "uint256"
        },
        {
          "indexed": true,
          "internalType": "uint256",
          "name": "productId",
          "type": "uint256"
        },
        {
          "indexed": true,
          "internalType": "address",
          "name": "creator",
          "type": "address"
        },
        {
          "indexed": false,
          "internalType": "bytes32",
          "name": "initialDataHash",
          "type": "bytes32"
        }
      ],
      "name": "BatchCreated",
      "type": "event"
    },
    {
      "anonymous": false,
      "inputs": [
        {
          "indexed": true,
          "internalType": "uint256",
          "name": "batchId",
          "type": "uint256"
        },
        {
          "indexed": true,
          "internalType": "bytes32",
          "name": "merkleRoot",
          "type": "bytes32"
        },
        {
          "indexed": true,
          "internalType": "address",
          "name": "committer",
          "type": "address"
        }
      ],
      "name": "BatchMerkleRootCommitted",
      "type": "event"
    },
    {
      "anonymous": false,
      "inputs": [
        {
          "indexed": true,
          "internalType": "address",
          "name": "previousOwner",
          "type": "address"
        },
        {
          "indexed": true,
          "internalType": "address",
          "name": "newOwner",
          "type": "address"
        }
      ],
      "name": "OwnershipTransferred",
      "type": "event"
    },
    {
      "anonymous": false,
      "inputs": [
        {
          "indexed": false,
          "internalType": "address",
          "name": "account",
          "type": "address"
        }
      ],
      "name": "Paused",
      "type": "event"
    },
    {
      "anonymous": false,
      "inputs": [
        {
          "indexed": true,
          "internalType": "uint256",
          "name": "productId",
          "type": "uint256"
        },
        {
          "indexed": true,
          "internalType": "address",
          "name": "owner",
          "type": "address"
        },
        {
          "indexed": false,
          "internalType": "string",
          "name": "name",
          "type": "string"
        },
        {
          "indexed": false,
          "internalType": "string",
          "name": "metadataURI",
          "type": "string"
        }
      ],
      "name": "ProductCreated",
      "type": "event"
    },
    {
      "anonymous": false,
      "inputs": [
        {
          "indexed": true,
          "internalType": "address",
          "name": "account",
          "type": "address"
        },
        {
          "indexed": false,
          "internalType": "uint256",
          "name": "roles",
          "type": "uint256"
        }
      ],
      "name": "RolesUpdated",
      "type": "event"
    },
    {
      "anonymous": false,
      "inputs": [
        {
          "indexed": true,
          "internalType": "uint256",
          "name": "eventId",
          "type": "uint256"
        },
        {
          "indexed": true,
          "internalType": "uint256",
          "name": "batchId",
          "type": "uint256"
        },
        {
          "indexed": false,
          "internalType": "enum TraceabilityMerkleRegistry.EventType",
          "name": "eventType",
          "type": "uint8"
        },
        {
          "indexed": true,
          "internalType": "address",
          "name": "actor",
          "type": "address"
        },
        {
          "indexed": false,
          "internalType": "uint64",
          "name": "timestamp",
          "type": "uint64"
        },
        {
          "indexed": false,
          "internalType": "bytes32",
          "name": "dataHash",
          "type": "bytes32"
        }
      ],
      "name": "TraceEventRecorded",
      "type": "event"
    },
    {
      "anonymous": false,
      "inputs": [
        {
          "indexed": false,
          "internalType": "address",
          "name": "account",
          "type": "address"
        }
      ],
      "name": "Unpaused",
      "type": "event"
    },
    {
      "inputs": [],
      "name": "ROLE_AUDITOR",
      "outputs": [
        {
          "internalType": "uint256",
          "name": "",
          "type": "uint256"
        }
      ],
      "stateMutability": "view",
      "type": "function"
    },
    {
      "inputs": [],
      "name": "ROLE_PROCESSOR",
      "outputs": [
        {
          "internalType": "uint256",
          "name": "",
          "type": "uint256"
        }
      ],
      "stateMutability": "view",
      "type": "function"
    },
    {
      "inputs": [],
      "name": "ROLE_PRODUCER",
      "outputs": [
        {
          "internalType": "uint256",
          "name": "",
          "type": "uint256"
        }
      ],
      "stateMutability": "view",
      "type": "function"
    },
    {
      "inputs": [],
      "name": "ROLE_RETAILER",
      "outputs": [
        {
          "internalType": "uint256",
          "name": "",
          "type": "uint256"
        }
      ],
      "stateMutability": "view",
      "type": "function"
    },
    {
      "inputs": [],
      "name": "ROLE_TRANSPORTER",
      "outputs": [
        {
          "internalType": "uint256",
          "name": "",
          "type": "uint256"
        }
      ],
      "stateMutability": "view",
      "type": "function"
    },
    {
      "inputs": [
        {
          "internalType": "bytes32",
          "name": "",
          "type": "bytes32"
        }
      ],
      "name": "batchCodeHashToBatchId",
      "outputs": [
        {
          "internalType": "uint256",
          "name": "",
          "type": "uint256"
        }
      ],
      "stateMutability": "view",
      "type": "function"
    },
    {
      "inputs": [
        {
          "internalType": "uint256",
          "name": "",
          "type": "uint256"
        },
        {
          "internalType": "uint256",
          "name": "",
          "type": "uint256"
        }
      ],
      "name": "batchEvents",
      "outputs": [
        {
          "internalType": "uint256",
          "name": "",
          "type": "uint256"
        }
      ],
      "stateMutability": "view",
      "type": "function"
    },
    {
      "inputs": [
        {
          "internalType": "uint256",
          "name": "",
          "type": "uint256"
        }
      ],
      "name": "batchMerkleRoot",
      "outputs": [
        {
          "internalType": "bytes32",
          "name": "",
          "type": "bytes32"
        }
      ],
      "stateMutability": "view",
      "type": "function"
    },
    {
      "inputs": [
        {
          "internalType": "uint256",
          "name": "",
          "type": "uint256"
        }
      ],
      "name": "batches",
      "outputs": [
        {
          "internalType": "uint256",
          "name": "productId",
          "type": "uint256"
        },
        {
          "internalType": "address",
          "name": "creator",
          "type": "address"
        },
        {
          "internalType": "address",
          "name": "currentOwner",
          "type": "address"
        },
        {
          "internalType": "bytes32",
          "name": "initialDataHash",
          "type": "bytes32"
        },
        {
          "internalType": "bool",
          "name": "exists",
          "type": "bool"
        },
        {
          "internalType": "bool",
          "name": "closed",
          "type": "bool"
        },
        {
          "internalType": "address",
          "name": "pendingReceiver",
          "type": "address"
        }
      ],
      "stateMutability": "view",
      "type": "function"
    },
    {
      "inputs": [
        {
          "internalType": "uint256",
          "name": "batchId",
          "type": "uint256"
        },
        {
          "internalType": "string",
          "name": "batchCode",
          "type": "string"
        }
      ],
      "name": "bindBatchCode",
      "outputs": [],
      "stateMutability": "nonpayable",
      "type": "function"
    },
    {
      "inputs": [
        {
          "internalType": "uint256",
          "name": "batchId",
          "type": "uint256"
        },
        {
          "internalType": "bytes32",
          "name": "merkleRoot",
          "type": "bytes32"
        }
      ],
      "name": "commitBatchMerkleRoot",
      "outputs": [],
      "stateMutability": "nonpayable",
      "type": "function"
    },
    {
      "inputs": [
        {
          "internalType": "uint256",
          "name": "productId",
          "type": "uint256"
        },
        {
          "internalType": "bytes32",
          "name": "initialDataHash",
          "type": "bytes32"
        }
      ],
      "name": "createBatch",
      "outputs": [
        {
          "internalType": "uint256",
          "name": "batchId",
          "type": "uint256"
        }
      ],
      "stateMutability": "nonpayable",
      "type": "function"
    },
    {
      "inputs": [
        {
          "internalType": "string",
          "name": "name",
          "type": "string"
        },
        {
          "internalType": "string",
          "name": "metadataURI",
          "type": "string"
        }
      ],
      "name": "createProduct",
      "outputs": [
        {
          "internalType": "uint256",
          "name": "productId",
          "type": "uint256"
        }
      ],
      "stateMutability": "nonpayable",
      "type": "function"
    },
    {
      "inputs": [
        {
          "internalType": "uint256",
          "name": "",
          "type": "uint256"
        }
      ],
      "name": "eventsById",
      "outputs": [
        {
          "internalType": "uint256",
          "name": "batchId",
          "type": "uint256"
        },
        {
          "internalType": "enum TraceabilityMerkleRegistry.EventType",
          "name": "eventType",
          "type": "uint8"
        },
        {
          "internalType": "address",
          "name": "actor",
          "type": "address"
        },
        {
          "internalType": "uint64",
          "name": "timestamp",
          "type": "uint64"
        },
        {
          "internalType": "bytes32",
          "name": "dataHash",
          "type": "bytes32"
        }
      ],
      "stateMutability": "view",
      "type": "function"
    },
    {
      "inputs": [
        {
          "internalType": "uint256",
          "name": "batchId",
          "type": "uint256"
        }
      ],
      "name": "getBatchEvents",
      "outputs": [
        {
          "internalType": "uint256[]",
          "name": "",
          "type": "uint256[]"
        }
      ],
      "stateMutability": "view",
      "type": "function"
    },
    {
      "inputs": [
        {
          "internalType": "address",
          "name": "account",
          "type": "address"
        },
        {
          "internalType": "uint256",
          "name": "role",
          "type": "uint256"
        }
      ],
      "name": "hasRole",
      "outputs": [
        {
          "internalType": "bool",
          "name": "",
          "type": "bool"
        }
      ],
      "stateMutability": "view",
      "type": "function"
    },
    {
      "inputs": [],
      "name": "nextBatchId",
      "outputs": [
        {
          "internalType": "uint256",
          "name": "",
          "type": "uint256"
        }
      ],
      "stateMutability": "view",
      "type": "function"
    },
    {
      "inputs": [],
      "name": "nextEventId",
      "outputs": [
        {
          "internalType": "uint256",
          "name": "",
          "type": "uint256"
        }
      ],
      "stateMutability": "view",
      "type": "function"
    },
    {
      "inputs": [],
      "name": "nextProductId",
      "outputs": [
        {
          "internalType": "uint256",
          "name": "",
          "type": "uint256"
        }
      ],
      "stateMutability": "view",
      "type": "function"
    },
    {
      "inputs": [],
      "name": "owner",
      "outputs": [
        {
          "internalType": "address",
          "name": "",
          "type": "address"
        }
      ],
      "stateMutability": "view",
      "type": "function"
    },
    {
      "inputs": [],
      "name": "pause",
      "outputs": [],
      "stateMutability": "nonpayable",
      "type": "function"
    },
    {
      "inputs": [],
      "name": "paused",
      "outputs": [
        {
          "internalType": "bool",
          "name": "",
          "type": "bool"
        }
      ],
      "stateMutability": "view",
      "type": "function"
    },
    {
      "inputs": [
        {
          "internalType": "uint256",
          "name": "",
          "type": "uint256"
        }
      ],
      "name": "products",
      "outputs": [
        {
          "internalType": "string",
          "name": "name",
          "type": "string"
        },
        {
          "internalType": "string",
          "name": "metadataURI",
          "type": "string"
        },
        {
          "internalType": "address",
          "name": "owner",
          "type": "address"
        },
        {
          "internalType": "bool",
          "name": "exists",
          "type": "bool"
        }
      ],
      "stateMutability": "view",
      "type": "function"
    },
    {
      "inputs": [
        {
          "internalType": "uint256",
          "name": "batchId",
          "type": "uint256"
        },
        {
          "internalType": "enum TraceabilityMerkleRegistry.EventType",
          "name": "eventType",
          "type": "uint8"
        },
        {
          "internalType": "bytes32",
          "name": "dataHash",
          "type": "bytes32"
        },
        {
          "internalType": "address",
          "name": "receiver",
          "type": "address"
        }
      ],
      "name": "recordTraceEvent",
      "outputs": [],
      "stateMutability": "nonpayable",
      "type": "function"
    },
    {
      "inputs": [
        {
          "internalType": "address",
          "name": "",
          "type": "address"
        }
      ],
      "name": "roles",
      "outputs": [
        {
          "internalType": "uint256",
          "name": "",
          "type": "uint256"
        }
      ],
      "stateMutability": "view",
      "type": "function"
    },
    {
      "inputs": [
        {
          "internalType": "address",
          "name": "account",
          "type": "address"
        },
        {
          "internalType": "uint256",
          "name": "newRoles",
          "type": "uint256"
        }
      ],
      "name": "setRoles",
      "outputs": [],
      "stateMutability": "nonpayable",
      "type": "function"
    },
    {
      "inputs": [
        {
          "internalType": "address",
          "name": "newOwner",
          "type": "address"
        }
      ],
      "name": "transferOwnership",
      "outputs": [],
      "stateMutability": "nonpayable",
      "type": "function"
    },
    {
      "inputs": [],
      "name": "unpause",
      "outputs": [],
      "stateMutability": "nonpayable",
      "type": "function"
    },
    {
      "inputs": [
        {
          "internalType": "bytes32",
          "name": "leaf",
          "type": "bytes32"
        },
        {
          "internalType": "bytes32",
          "name": "root",
          "type": "bytes32"
        },
        {
          "internalType": "bytes32[]",
          "name": "proof",
          "type": "bytes32[]"
        }
      ],
      "name": "verifyWithRoot",
      "outputs": [
        {
          "internalType": "bool",
          "name": "",
          "type": "bool"
        }
      ],
      "stateMutability": "pure",
      "type": "function"
    }
  ],
  "bytecode": "0x6080604052600160035560016004556001600555348015601d575f5ffd5b50335f5f6101000a81548173ffffffffffffffffffffffffffffffffffffffff021916908373ffffffffffffffffffffffffffffffffffffffff1602179055503373ffffffffffffffffffffffffffffffffffffffff165f73ffffffffffffffffffffffffffffffffffffffff167f8be0079c531659141344cd1fd0a4f28419497f9722a3daafe3b4186f6b6457e060405160405180910390a3613b9c806100c45f395ff3fe608060405234801561000f575f5ffd5b50600436106101cd575f3560e01c80638462a7f811610102578063a13fbeed116100a0578063c4d6b7d51161006f578063c4d6b7d51461053e578063de75348c1461056e578063ecd406601461059e578063f2fde38b146105ce576101cd565b8063a13fbeed146104ae578063b32c4d8d146104cc578063b43857e814610502578063bc7b8b2414610520576101cd565b80638da5cb5b116100dc5780638da5cb5b1461042657806399374642146104445780639a7a0238146104745780639f9d903a14610490576101cd565b80638462a7f8146103bc57806387592bce146103da5780638ace69cf1461040a576101cd565b80634cd685781161016f5780635c97f4a2116101495780635c97f4a21461031b5780636d7524ee1461034b5780637acc0b201461037f5780638456cb59146103b2576101cd565b80634cd68578146102af5780634de91a63146102df5780635c975abb146102fd576101cd565b8063391224c2116101ab578063391224c2146102275780633f029aaf146102575780633f4ba83a14610275578063483fc3bb1461027f576101cd565b80631338811a146101d157806321a6f8aa146101ed57806333a3ad8f1461020b575b5f5ffd5b6101eb60048036038101906101e69190612e6a565b6105ea565b005b6101f5610b6d565b6040516102029190612edd565b60405180910390f35b61022560048036038101906102209190612ef6565b610b72565b005b610241600480360381019061023c9190612f34565b610cf0565b60405161024e9190612f6e565b60405180910390f35b61025f610d05565b60405161026c9190612edd565b60405180910390f35b61027d610d0a565b005b61029960048036038101906102949190612fe8565b610de1565b6040516102a69190613073565b60405180910390f35b6102c960048036038101906102c4919061308c565b610df9565b6040516102d69190612edd565b60405180910390f35b6102e7610e0e565b6040516102f49190612edd565b60405180910390f35b610305610e14565b6040516103129190613073565b60405180910390f35b61033560048036038101906103309190612ef6565b610e26565b6040516103429190613073565b60405180910390f35b61036560048036038101906103609190612f34565b610e72565b60405161037695949392919061315b565b60405180910390f35b61039960048036038101906103949190612f34565b610ee4565b6040516103a9949392919061321c565b60405180910390f35b6103ba611048565b005b6103c4611120565b6040516103d19190612edd565b60405180910390f35b6103f460048036038101906103ef91906132c2565b611126565b6040516104019190612edd565b60405180910390f35b610424600480360381019061041f9190613340565b61141a565b005b61042e611676565b60405161043b919061337e565b60405180910390f35b61045e60048036038101906104599190613397565b61169a565b60405161046b9190612edd565b60405180910390f35b61048e600480360381019061048991906133c2565b6116af565b005b6104986119a5565b6040516104a59190612edd565b60405180910390f35b6104b66119ab565b6040516104c39190612edd565b60405180910390f35b6104e660048036038101906104e19190612f34565b6119b0565b6040516104f9979695949392919061341f565b60405180910390f35b61050a611a65565b6040516105179190612edd565b60405180910390f35b610528611a6a565b6040516105359190612edd565b60405180910390f35b61055860048036038101906105539190613340565b611a6f565b6040516105659190612edd565b60405180910390f35b6105886004803603810190610583919061348c565b611fa0565b6040516105959190612edd565b60405180910390f35b6105b860048036038101906105b39190612f34565b611fcb565b6040516105c59190613581565b60405180910390f35b6105e860048036038101906105e39190613397565b612032565b005b60025f9054906101000a900460ff1615610630576040517ff322ab2600000000000000000000000000000000000000000000000000000000815260040160405180910390fd5b8360075f8281526020019081526020015f206004015f9054906101000a900460ff16610688576040517f33b094a100000000000000000000000000000000000000000000000000000000815260040160405180910390fd5b5f60075f8781526020019081526020015f2090508060040160019054906101000a900460ff16156106e5576040517f6bdcb88a00000000000000000000000000000000000000000000000000000000815260040160405180910390fd5b6106ef85336121d8565b6106fb868633866125f6565b6002600781111561070f5761070e6130b7565b5b856007811115610722576107216130b7565b5b03610858575f73ffffffffffffffffffffffffffffffffffffffff168373ffffffffffffffffffffffffffffffffffffffff160361078c576040517fd92e233d00000000000000000000000000000000000000000000000000000000815260040160405180910390fd5b806002015f9054906101000a900473ffffffffffffffffffffffffffffffffffffffff1673ffffffffffffffffffffffffffffffffffffffff168373ffffffffffffffffffffffffffffffffffffffff1603610814576040517f82b4290000000000000000000000000000000000000000000000000000000000815260040160405180910390fd5b828160040160026101000a81548173ffffffffffffffffffffffffffffffffffffffff021916908373ffffffffffffffffffffffffffffffffffffffff1602179055505b6003600781111561086c5761086b6130b7565b5b85600781111561087f5761087e6130b7565b5b03610a2e575f73ffffffffffffffffffffffffffffffffffffffff168160040160029054906101000a900473ffffffffffffffffffffffffffffffffffffffff1673ffffffffffffffffffffffffffffffffffffffff1603610916576040517f08c379a000000000000000000000000000000000000000000000000000000000815260040161090d906135eb565b60405180910390fd5b8060040160029054906101000a900473ffffffffffffffffffffffffffffffffffffffff1673ffffffffffffffffffffffffffffffffffffffff163373ffffffffffffffffffffffffffffffffffffffff16146109a8576040517f08c379a000000000000000000000000000000000000000000000000000000000815260040161099f90613653565b60405180910390fd5b33816002015f6101000a81548173ffffffffffffffffffffffffffffffffffffffff021916908373ffffffffffffffffffffffffffffffffffffffff1602179055505f8160040160026101000a81548173ffffffffffffffffffffffffffffffffffffffff021916908373ffffffffffffffffffffffffffffffffffffffff1602179055505b60046007811115610a4257610a416130b7565b5b856007811115610a5557610a546130b7565b5b03610a9d5733816002015f6101000a81548173ffffffffffffffffffffffffffffffffffffffff021916908373ffffffffffffffffffffffffffffffffffffffff1602179055505b60056007811115610ab157610ab06130b7565b5b856007811115610ac457610ac36130b7565b5b1480610af4575060066007811115610adf57610ade6130b7565b5b856007811115610af257610af16130b7565b5b145b15610b595733816002015f6101000a81548173ffffffffffffffffffffffffffffffffffffffff021916908373ffffffffffffffffffffffffffffffffffffffff16021790555060018160040160016101000a81548160ff0219169083151502179055505b610b6586863387612a9b565b505050505050565b600281565b5f5f9054906101000a900473ffffffffffffffffffffffffffffffffffffffff1673ffffffffffffffffffffffffffffffffffffffff163373ffffffffffffffffffffffffffffffffffffffff1614610bf7576040517f82b4290000000000000000000000000000000000000000000000000000000000815260040160405180910390fd5b5f73ffffffffffffffffffffffffffffffffffffffff168273ffffffffffffffffffffffffffffffffffffffff1603610c5c576040517fd92e233d00000000000000000000000000000000000000000000000000000000815260040160405180910390fd5b8060015f8473ffffffffffffffffffffffffffffffffffffffff1673ffffffffffffffffffffffffffffffffffffffff1681526020019081526020015f20819055508173ffffffffffffffffffffffffffffffffffffffff167f715ad5ce61fc9595c7b415289d59cf203f23a94fa06f04af7e489a0a76e1fe2682604051610ce49190612edd565b60405180910390a25050565b600b602052805f5260405f205f915090505481565b601081565b5f5f9054906101000a900473ffffffffffffffffffffffffffffffffffffffff1673ffffffffffffffffffffffffffffffffffffffff163373ffffffffffffffffffffffffffffffffffffffff1614610d8f576040517f82b4290000000000000000000000000000000000000000000000000000000000815260040160405180910390fd5b5f60025f6101000a81548160ff0219169083151502179055507f5db9ee0a495bf2e6ff9c91a7834c1ba4fdd244a5e8aa4e537bd38aeae4b073aa33604051610dd7919061337e565b60405180910390a1565b5f83610dee868585612ccc565b149050949350505050565b600a602052805f5260405f205f915090505481565b60035481565b60025f9054906101000a900460ff1681565b5f5f8260015f8673ffffffffffffffffffffffffffffffffffffffff1673ffffffffffffffffffffffffffffffffffffffff1681526020019081526020015f2054161415905092915050565b6008602052805f5260405f205f91509050805f015490806001015f9054906101000a900460ff16908060010160019054906101000a900473ffffffffffffffffffffffffffffffffffffffff16908060010160159054906101000a900467ffffffffffffffff16908060020154905085565b6006602052805f5260405f205f91509050805f018054610f039061369e565b80601f0160208091040260200160405190810160405280929190818152602001828054610f2f9061369e565b8015610f7a5780601f10610f5157610100808354040283529160200191610f7a565b820191905f5260205f20905b815481529060010190602001808311610f5d57829003601f168201915b505050505090806001018054610f8f9061369e565b80601f0160208091040260200160405190810160405280929190818152602001828054610fbb9061369e565b80156110065780601f10610fdd57610100808354040283529160200191611006565b820191905f5260205f20905b815481529060010190602001808311610fe957829003601f168201915b505050505090806002015f9054906101000a900473ffffffffffffffffffffffffffffffffffffffff16908060020160149054906101000a900460ff16905084565b5f5f9054906101000a900473ffffffffffffffffffffffffffffffffffffffff1673ffffffffffffffffffffffffffffffffffffffff163373ffffffffffffffffffffffffffffffffffffffff16146110cd576040517f82b4290000000000000000000000000000000000000000000000000000000000815260040160405180910390fd5b600160025f6101000a81548160ff0219169083151502179055507f62e78cea01bee320cd4e420270b5ea74000d11b0c9f74754ebdbfc544b05a25833604051611116919061337e565b60405180910390a1565b60045481565b5f60025f9054906101000a900460ff161561116d576040517ff322ab2600000000000000000000000000000000000000000000000000000000815260040160405180910390fd5b60015f8160015f3373ffffffffffffffffffffffffffffffffffffffff1673ffffffffffffffffffffffffffffffffffffffff1681526020019081526020015f20541614801561120957505f5f9054906101000a900473ffffffffffffffffffffffffffffffffffffffff1673ffffffffffffffffffffffffffffffffffffffff163373ffffffffffffffffffffffffffffffffffffffff1614155b15611240576040517f82b4290000000000000000000000000000000000000000000000000000000000815260040160405180910390fd5b60035f815480929190611252906136fb565b919050559150604051806080016040528087878080601f0160208091040260200160405190810160405280939291908181526020018383808284375f81840152601f19601f82011690508083019250505050505050815260200185858080601f0160208091040260200160405190810160405280939291908181526020018383808284375f81840152601f19601f8201169050808301925050505050505081526020013373ffffffffffffffffffffffffffffffffffffffff1681526020016001151581525060065f8481526020019081526020015f205f820151815f01908161133c919061390f565b506020820151816001019081611352919061390f565b506040820151816002015f6101000a81548173ffffffffffffffffffffffffffffffffffffffff021916908373ffffffffffffffffffffffffffffffffffffffff16021790555060608201518160020160146101000a81548160ff0219169083151502179055509050503373ffffffffffffffffffffffffffffffffffffffff16827f5b6548625353cfbb6de6bbb313a0b1cf8efbb45f2874f24c9d352590e3e366ff888888886040516114099493929190613a18565b60405180910390a350949350505050565b60025f9054906101000a900460ff1615611460576040517ff322ab2600000000000000000000000000000000000000000000000000000000815260040160405180910390fd5b8160075f8281526020019081526020015f206004015f9054906101000a900460ff166114b8576040517f33b094a100000000000000000000000000000000000000000000000000000000815260040160405180910390fd5b5f5f1b82036114f3576040517f2e8c904e00000000000000000000000000000000000000000000000000000000815260040160405180910390fd5b5f5f1b600b5f8581526020019081526020015f20541461153f576040517f6006d96400000000000000000000000000000000000000000000000000000000815260040160405180910390fd5b5f60015f3373ffffffffffffffffffffffffffffffffffffffff1673ffffffffffffffffffffffffffffffffffffffff1681526020019081526020015f205490505f5f9054906101000a900473ffffffffffffffffffffffffffffffffffffffff1673ffffffffffffffffffffffffffffffffffffffff163373ffffffffffffffffffffffffffffffffffffffff16141580156115de57505f60108216145b15611615576040517f82b4290000000000000000000000000000000000000000000000000000000000815260040160405180910390fd5b82600b5f8681526020019081526020015f20819055503373ffffffffffffffffffffffffffffffffffffffff1683857f6cc668dfcfb73b1f297b65a8bd52a62f4c634e392247b9d7c35b1e4b590e577f60405160405180910390a450505050565b5f5f9054906101000a900473ffffffffffffffffffffffffffffffffffffffff1681565b6001602052805f5260405f205f915090505481565b60025f9054906101000a900460ff16156116f5576040517ff322ab2600000000000000000000000000000000000000000000000000000000815260040160405180910390fd5b8260075f8281526020019081526020015f206004015f9054906101000a900460ff1661174d576040517f33b094a100000000000000000000000000000000000000000000000000000000815260040160405180910390fd5b5f60075f8681526020019081526020015f209050806002015f9054906101000a900473ffffffffffffffffffffffffffffffffffffffff1673ffffffffffffffffffffffffffffffffffffffff163373ffffffffffffffffffffffffffffffffffffffff161415801561180f5750806001015f9054906101000a900473ffffffffffffffffffffffffffffffffffffffff1673ffffffffffffffffffffffffffffffffffffffff163373ffffffffffffffffffffffffffffffffffffffff1614155b801561186757505f5f9054906101000a900473ffffffffffffffffffffffffffffffffffffffff1673ffffffffffffffffffffffffffffffffffffffff163373ffffffffffffffffffffffffffffffffffffffff1614155b1561189e576040517f82b4290000000000000000000000000000000000000000000000000000000000815260040160405180910390fd5b8060040160019054906101000a900460ff16156118e7576040517f6bdcb88a00000000000000000000000000000000000000000000000000000000815260040160405180910390fd5b5f84846040516118f8929190613a7f565b604051809103902090505f600a5f8381526020019081526020015f20541461194c576040517fe092299d00000000000000000000000000000000000000000000000000000000815260040160405180910390fd5b85600a5f8381526020019081526020015f208190555080867f506c82a4b9513c193f67b1622dbdf0b23390c1ad17a36d51e1db7b4410c742958787604051611995929190613a97565b60405180910390a3505050505050565b60055481565b600181565b6007602052805f5260405f205f91509050805f015490806001015f9054906101000a900473ffffffffffffffffffffffffffffffffffffffff1690806002015f9054906101000a900473ffffffffffffffffffffffffffffffffffffffff1690806003015490806004015f9054906101000a900460ff16908060040160019054906101000a900460ff16908060040160029054906101000a900473ffffffffffffffffffffffffffffffffffffffff16905087565b600881565b600481565b5f60025f9054906101000a900460ff1615611ab6576040517ff322ab2600000000000000000000000000000000000000000000000000000000815260040160405180910390fd5b60015f8160015f3373ffffffffffffffffffffffffffffffffffffffff1673ffffffffffffffffffffffffffffffffffffffff1681526020019081526020015f205416148015611b5257505f5f9054906101000a900473ffffffffffffffffffffffffffffffffffffffff1673ffffffffffffffffffffffffffffffffffffffff163373ffffffffffffffffffffffffffffffffffffffff1614155b15611b89576040517f82b4290000000000000000000000000000000000000000000000000000000000815260040160405180910390fd5b5f60065f8681526020019081526020015f206040518060800160405290815f82018054611bb59061369e565b80601f0160208091040260200160405190810160405280929190818152602001828054611be19061369e565b8015611c2c5780601f10611c0357610100808354040283529160200191611c2c565b820191905f5260205f20905b815481529060010190602001808311611c0f57829003601f168201915b50505050508152602001600182018054611c459061369e565b80601f0160208091040260200160405190810160405280929190818152602001828054611c719061369e565b8015611cbc5780601f10611c9357610100808354040283529160200191611cbc565b820191905f5260205f20905b815481529060010190602001808311611c9f57829003601f168201915b50505050508152602001600282015f9054906101000a900473ffffffffffffffffffffffffffffffffffffffff1673ffffffffffffffffffffffffffffffffffffffff1673ffffffffffffffffffffffffffffffffffffffff1681526020016002820160149054906101000a900460ff16151515158152505090508060600151611d72576040517fa661c0e700000000000000000000000000000000000000000000000000000000815260040160405180910390fd5b60045f815480929190611d84906136fb565b9190505592506040518060e001604052808681526020013373ffffffffffffffffffffffffffffffffffffffff1681526020013373ffffffffffffffffffffffffffffffffffffffff1681526020018581526020016001151581526020015f151581526020015f73ffffffffffffffffffffffffffffffffffffffff1681525060075f8581526020019081526020015f205f820151815f01556020820151816001015f6101000a81548173ffffffffffffffffffffffffffffffffffffffff021916908373ffffffffffffffffffffffffffffffffffffffff1602179055506040820151816002015f6101000a81548173ffffffffffffffffffffffffffffffffffffffff021916908373ffffffffffffffffffffffffffffffffffffffff160217905550606082015181600301556080820151816004015f6101000a81548160ff02191690831515021790555060a08201518160040160016101000a81548160ff02191690831515021790555060c08201518160040160026101000a81548173ffffffffffffffffffffffffffffffffffffffff021916908373ffffffffffffffffffffffffffffffffffffffff160217905550905050611f48835f3387612a9b565b3373ffffffffffffffffffffffffffffffffffffffff1685847fb8e4c77c5f3171f096fd7e3977a2eebf1c3eefe6547f83f12fe70bf3361daa7d87604051611f909190612f6e565b60405180910390a4505092915050565b6009602052815f5260405f208181548110611fb9575f80fd5b905f5260205f20015f91509150505481565b606060095f8381526020019081526020015f2080548060200260200160405190810160405280929190818152602001828054801561202657602002820191905f5260205f20905b815481526020019060010190808311612012575b50505050509050919050565b5f5f9054906101000a900473ffffffffffffffffffffffffffffffffffffffff1673ffffffffffffffffffffffffffffffffffffffff163373ffffffffffffffffffffffffffffffffffffffff16146120b7576040517f82b4290000000000000000000000000000000000000000000000000000000000815260040160405180910390fd5b5f73ffffffffffffffffffffffffffffffffffffffff168173ffffffffffffffffffffffffffffffffffffffff160361211c576040517fd92e233d00000000000000000000000000000000000000000000000000000000815260040160405180910390fd5b8073ffffffffffffffffffffffffffffffffffffffff165f5f9054906101000a900473ffffffffffffffffffffffffffffffffffffffff1673ffffffffffffffffffffffffffffffffffffffff167f8be0079c531659141344cd1fd0a4f28419497f9722a3daafe3b4186f6b6457e060405160405180910390a3805f5f6101000a81548173ffffffffffffffffffffffffffffffffffffffff021916908373ffffffffffffffffffffffffffffffffffffffff16021790555050565b5f60015f8373ffffffffffffffffffffffffffffffffffffffff1673ffffffffffffffffffffffffffffffffffffffff1681526020019081526020015f205490505f5f9054906101000a900473ffffffffffffffffffffffffffffffffffffffff1673ffffffffffffffffffffffffffffffffffffffff168273ffffffffffffffffffffffffffffffffffffffff160361227257506125f2565b5f6007811115612285576122846130b7565b5b836007811115612298576122976130b7565b5b036122de575f60018216036122d9576040517f82b4290000000000000000000000000000000000000000000000000000000000815260040160405180910390fd5b6125f0565b600160078111156122f2576122f16130b7565b5b836007811115612305576123046130b7565b5b0361234e575f6002600117821603612349576040517f82b4290000000000000000000000000000000000000000000000000000000000815260040160405180910390fd5b6125ef565b60026007811115612362576123616130b7565b5b836007811115612375576123746130b7565b5b036123c1575f60046002600117178216036123bc576040517f82b4290000000000000000000000000000000000000000000000000000000000815260040160405180910390fd5b6125ee565b600360078111156123d5576123d46130b7565b5b8360078111156123e8576123e76130b7565b5b03612434575f600860026004171782160361242f576040517f82b4290000000000000000000000000000000000000000000000000000000000815260040160405180910390fd5b6125ed565b60046007811115612448576124476130b7565b5b83600781111561245b5761245a6130b7565b5b036124a4575f600260081782160361249f576040517f82b4290000000000000000000000000000000000000000000000000000000000815260040160405180910390fd5b6125ec565b600560078111156124b8576124b76130b7565b5b8360078111156124cb576124ca6130b7565b5b03612511575f600882160361250c576040517f82b4290000000000000000000000000000000000000000000000000000000000815260040160405180910390fd5b6125eb565b60066007811115612525576125246130b7565b5b836007811115612538576125376130b7565b5b03612584575f601060086001171782160361257f576040517f82b4290000000000000000000000000000000000000000000000000000000000815260040160405180910390fd5b6125ea565b600780811115612597576125966130b7565b5b8360078111156125aa576125a96130b7565b5b036125e9575f81036125e8576040517f82b4290000000000000000000000000000000000000000000000000000000000815260040160405180910390fd5b5b5b5b5b5b5b5b5b505b5050565b5f60075f8681526020019081526020015f2090506001600781111561261e5761261d6130b7565b5b846007811115612631576126306130b7565b5b148061266157506002600781111561264c5761264b6130b7565b5b84600781111561265f5761265e6130b7565b5b145b8061269057506004600781111561267b5761267a6130b7565b5b84600781111561268e5761268d6130b7565b5b145b806126bf5750600560078111156126aa576126a96130b7565b5b8460078111156126bd576126bc6130b7565b5b145b806126ee5750600660078111156126d9576126d86130b7565b5b8460078111156126ec576126eb6130b7565b5b145b8061271c5750600780811115612707576127066130b7565b5b84600781111561271a576127196130b7565b5b145b1561280457806002015f9054906101000a900473ffffffffffffffffffffffffffffffffffffffff1673ffffffffffffffffffffffffffffffffffffffff168373ffffffffffffffffffffffffffffffffffffffff16141580156127cc57505f5f9054906101000a900473ffffffffffffffffffffffffffffffffffffffff1673ffffffffffffffffffffffffffffffffffffffff168373ffffffffffffffffffffffffffffffffffffffff1614155b15612803576040517f82b4290000000000000000000000000000000000000000000000000000000000815260040160405180910390fd5b5b60026007811115612818576128176130b7565b5b84600781111561282b5761282a6130b7565b5b036128fb575f73ffffffffffffffffffffffffffffffffffffffff168273ffffffffffffffffffffffffffffffffffffffff1603612895576040517fd92e233d00000000000000000000000000000000000000000000000000000000815260040160405180910390fd5b8273ffffffffffffffffffffffffffffffffffffffff168273ffffffffffffffffffffffffffffffffffffffff16036128fa576040517f82b4290000000000000000000000000000000000000000000000000000000000815260040160405180910390fd5b5b6003600781111561290f5761290e6130b7565b5b846007811115612922576129216130b7565b5b03612a94575f73ffffffffffffffffffffffffffffffffffffffff168160040160029054906101000a900473ffffffffffffffffffffffffffffffffffffffff1673ffffffffffffffffffffffffffffffffffffffff16036129b0576040517f82b4290000000000000000000000000000000000000000000000000000000000815260040160405180910390fd5b8060040160029054906101000a900473ffffffffffffffffffffffffffffffffffffffff1673ffffffffffffffffffffffffffffffffffffffff168373ffffffffffffffffffffffffffffffffffffffff1614158015612a5c57505f5f9054906101000a900473ffffffffffffffffffffffffffffffffffffffff1673ffffffffffffffffffffffffffffffffffffffff168373ffffffffffffffffffffffffffffffffffffffff1614155b15612a93576040517f82b4290000000000000000000000000000000000000000000000000000000000815260040160405180910390fd5b5b5050505050565b600780811115612aae57612aad6130b7565b5b60ff16836007811115612ac457612ac36130b7565b5b60ff161115612aff576040517f2e8c904e00000000000000000000000000000000000000000000000000000000815260040160405180910390fd5b5f60055f815480929190612b12906136fb565b9190505590506040518060a00160405280868152602001856007811115612b3c57612b3b6130b7565b5b81526020018473ffffffffffffffffffffffffffffffffffffffff1681526020014267ffffffffffffffff1681526020018381525060085f8381526020019081526020015f205f820151815f01556020820151816001015f6101000a81548160ff02191690836007811115612bb457612bb36130b7565b5b021790555060408201518160010160016101000a81548173ffffffffffffffffffffffffffffffffffffffff021916908373ffffffffffffffffffffffffffffffffffffffff16021790555060608201518160010160156101000a81548167ffffffffffffffff021916908367ffffffffffffffff1602179055506080820151816002015590505060095f8681526020019081526020015f2081908060018154018082558091505060019003905f5260205f20015f90919091909150558273ffffffffffffffffffffffffffffffffffffffff1685827f0dcf9cf0b0ef90d5acde712ce20c5e9389f622a1bc4c8f8d34cbecbdb3172f08874287604051612cbd93929190613ab9565b60405180910390a45050505050565b5f5f8490505f8484905090505f5f90505b81811015612d72575f868683818110612cf957612cf8613aee565b5b90506020020135905080841015612d3a578381604051602001612d1d929190613b3b565b604051602081830303815290604052805190602001209350612d66565b8084604051602001612d4d929190613b3b565b6040516020818303038152906040528051906020012093505b81600101915050612cdd565b5081925050509392505050565b5f5ffd5b5f5ffd5b5f819050919050565b612d9981612d87565b8114612da3575f5ffd5b50565b5f81359050612db481612d90565b92915050565b60088110612dc6575f5ffd5b50565b5f81359050612dd781612dba565b92915050565b5f819050919050565b612def81612ddd565b8114612df9575f5ffd5b50565b5f81359050612e0a81612de6565b92915050565b5f73ffffffffffffffffffffffffffffffffffffffff82169050919050565b5f612e3982612e10565b9050919050565b612e4981612e2f565b8114612e53575f5ffd5b50565b5f81359050612e6481612e40565b92915050565b5f5f5f5f60808587031215612e8257612e81612d7f565b5b5f612e8f87828801612da6565b9450506020612ea087828801612dc9565b9350506040612eb187828801612dfc565b9250506060612ec287828801612e56565b91505092959194509250565b612ed781612d87565b82525050565b5f602082019050612ef05f830184612ece565b92915050565b5f5f60408385031215612f0c57612f0b612d7f565b5b5f612f1985828601612e56565b9250506020612f2a85828601612da6565b9150509250929050565b5f60208284031215612f4957612f48612d7f565b5b5f612f5684828501612da6565b91505092915050565b612f6881612ddd565b82525050565b5f602082019050612f815f830184612f5f565b92915050565b5f5ffd5b5f5ffd5b5f5ffd5b5f5f83601f840112612fa857612fa7612f87565b5b8235905067ffffffffffffffff811115612fc557612fc4612f8b565b5b602083019150836020820283011115612fe157612fe0612f8f565b5b9250929050565b5f5f5f5f6060858703121561300057612fff612d7f565b5b5f61300d87828801612dfc565b945050602061301e87828801612dfc565b935050604085013567ffffffffffffffff81111561303f5761303e612d83565b5b61304b87828801612f93565b925092505092959194509250565b5f8115159050919050565b61306d81613059565b82525050565b5f6020820190506130865f830184613064565b92915050565b5f602082840312156130a1576130a0612d7f565b5b5f6130ae84828501612dfc565b91505092915050565b7f4e487b71000000000000000000000000000000000000000000000000000000005f52602160045260245ffd5b600881106130f5576130f46130b7565b5b50565b5f819050613105826130e4565b919050565b5f613114826130f8565b9050919050565b6131248161310a565b82525050565b61313381612e2f565b82525050565b5f67ffffffffffffffff82169050919050565b61315581613139565b82525050565b5f60a08201905061316e5f830188612ece565b61317b602083018761311b565b613188604083018661312a565b613195606083018561314c565b6131a26080830184612f5f565b9695505050505050565b5f81519050919050565b5f82825260208201905092915050565b8281835e5f83830152505050565b5f601f19601f8301169050919050565b5f6131ee826131ac565b6131f881856131b6565b93506132088185602086016131c6565b613211816131d4565b840191505092915050565b5f6080820190508181035f83015261323481876131e4565b9050818103602083015261324881866131e4565b9050613257604083018561312a565b6132646060830184613064565b95945050505050565b5f5f83601f84011261328257613281612f87565b5b8235905067ffffffffffffffff81111561329f5761329e612f8b565b5b6020830191508360018202830111156132bb576132ba612f8f565b5b9250929050565b5f5f5f5f604085870312156132da576132d9612d7f565b5b5f85013567ffffffffffffffff8111156132f7576132f6612d83565b5b6133038782880161326d565b9450945050602085013567ffffffffffffffff81111561332657613325612d83565b5b6133328782880161326d565b925092505092959194509250565b5f5f6040838503121561335657613355612d7f565b5b5f61336385828601612da6565b925050602061337485828601612dfc565b9150509250929050565b5f6020820190506133915f83018461312a565b92915050565b5f602082840312156133ac576133ab612d7f565b5b5f6133b984828501612e56565b91505092915050565b5f5f5f604084860312156133d9576133d8612d7f565b5b5f6133e686828701612da6565b935050602084013567ffffffffffffffff81111561340757613406612d83565b5b6134138682870161326d565b92509250509250925092565b5f60e0820190506134325f83018a612ece565b61343f602083018961312a565b61344c604083018861312a565b6134596060830187612f5f565b6134666080830186613064565b61347360a0830185613064565b61348060c083018461312a565b98975050505050505050565b5f5f604083850312156134a2576134a1612d7f565b5b5f6134af85828601612da6565b92505060206134c085828601612da6565b9150509250929050565b5f81519050919050565b5f82825260208201905092915050565b5f819050602082019050919050565b6134fc81612d87565b82525050565b5f61350d83836134f3565b60208301905092915050565b5f602082019050919050565b5f61352f826134ca565b61353981856134d4565b9350613544836134e4565b805f5b8381101561357457815161355b8882613502565b975061356683613519565b925050600181019050613547565b5085935050505092915050565b5f6020820190508181035f8301526135998184613525565b905092915050565b7f4e6f2070656e64696e67207265636569766572000000000000000000000000005f82015250565b5f6135d56013836131b6565b91506135e0826135a1565b602082019050919050565b5f6020820190508181035f830152613602816135c9565b9050919050565b7f4e6f742061737369676e656420726563656976657200000000000000000000005f82015250565b5f61363d6015836131b6565b915061364882613609565b602082019050919050565b5f6020820190508181035f83015261366a81613631565b9050919050565b7f4e487b71000000000000000000000000000000000000000000000000000000005f52602260045260245ffd5b5f60028204905060018216806136b557607f821691505b6020821081036136c8576136c7613671565b5b50919050565b7f4e487b71000000000000000000000000000000000000000000000000000000005f52601160045260245ffd5b5f61370582612d87565b91507fffffffffffffffffffffffffffffffffffffffffffffffffffffffffffffffff8203613737576137366136ce565b5b600182019050919050565b7f4e487b71000000000000000000000000000000000000000000000000000000005f52604160045260245ffd5b5f819050815f5260205f209050919050565b5f6020601f8301049050919050565b5f82821b905092915050565b5f600883026137cb7fffffffffffffffffffffffffffffffffffffffffffffffffffffffffffffffff82613790565b6137d58683613790565b95508019841693508086168417925050509392505050565b5f819050919050565b5f61381061380b61380684612d87565b6137ed565b612d87565b9050919050565b5f819050919050565b613829836137f6565b61383d61383582613817565b84845461379c565b825550505050565b5f5f905090565b613854613845565b61385f818484613820565b505050565b5b81811015613882576138775f8261384c565b600181019050613865565b5050565b601f8211156138c7576138988161376f565b6138a184613781565b810160208510156138b0578190505b6138c46138bc85613781565b830182613864565b50505b505050565b5f82821c905092915050565b5f6138e75f19846008026138cc565b1980831691505092915050565b5f6138ff83836138d8565b9150826002028217905092915050565b613918826131ac565b67ffffffffffffffff81111561393157613930613742565b5b61393b825461369e565b613946828285613886565b5f60209050601f831160018114613977575f8415613965578287015190505b61396f85826138f4565b8655506139d6565b601f1984166139858661376f565b5f5b828110156139ac57848901518255600182019150602085019450602081019050613987565b868310156139c957848901516139c5601f8916826138d8565b8355505b6001600288020188555050505b505050505050565b828183375f83830152505050565b5f6139f783856131b6565b9350613a048385846139de565b613a0d836131d4565b840190509392505050565b5f6040820190508181035f830152613a318186886139ec565b90508181036020830152613a468184866139ec565b905095945050505050565b5f81905092915050565b5f613a668385613a51565b9350613a738385846139de565b82840190509392505050565b5f613a8b828486613a5b565b91508190509392505050565b5f6020820190508181035f830152613ab08184866139ec565b90509392505050565b5f606082019050613acc5f83018661311b565b613ad9602083018561314c565b613ae66040830184612f5f565b949350505050565b7f4e487b71000000000000000000000000000000000000000000000000000000005f52603260045260245ffd5b5f819050919050565b613b35613b3082612ddd565b613b1b565b82525050565b5f613b468285613b24565b602082019150613b568284613b24565b602082019150819050939250505056fea2646970667358221220464c0e79f2bc09194f799695c6d785314c2ca1ffc5a86ed14e83d47dc6a7ce4b64736f6c634300081c0033",
  "linkReferences": {},
  "deployedLinkReferences": {},
  "immutableReferences": {},
  "inputSourceName": "project/contracts/TraceabilityMerkleRegistry.sol",
  "buildInfoId": "solc-0_8_28-100f2535f20c4f6c0913fa94b60511789bee7757"
}